{
    "_format": "hh-sol-artifact-1",
    "contractName": "Funding",
    "sourceName": "contracts/Funding.sol",
    "abi": [
        {
            "inputs": [
                {
                    "internalType": "address",
                    "name": "tokenAddress",
                    "type": "address"
                },
                {
                    "internalType": "address",
                    "name": "usdcAddress",
                    "type": "address"
                }
            ],
            "stateMutability": "nonpayable",
            "type": "constructor"
        },
        {
            "anonymous": false,
            "inputs": [
                {
                    "indexed": false,
                    "internalType": "address",
                    "name": "owner",
                    "type": "address"
                },
                {
                    "indexed": false,
                    "internalType": "uint256",
                    "name": "balance",
                    "type": "uint256"
                }
            ],
            "name": "Distributed",
            "type": "event"
        },
        {
            "anonymous": false,
            "inputs": [
                {
                    "indexed": false,
                    "internalType": "address",
                    "name": "donator",
                    "type": "address"
                },
                {
                    "indexed": false,
                    "internalType": "uint256",
                    "name": "amount",
                    "type": "uint256"
                },
                {
                    "indexed": false,
                    "internalType": "uint256",
                    "name": "fundId",
                    "type": "uint256"
                }
            ],
            "name": "Donated",
            "type": "event"
        },
        {
            "anonymous": false,
            "inputs": [
                {
                    "indexed": false,
                    "internalType": "address",
                    "name": "owner",
                    "type": "address"
                },
                {
                    "indexed": false,
                    "internalType": "uint256",
                    "name": "cap",
                    "type": "uint256"
                },
                {
                    "indexed": false,
                    "internalType": "uint256",
                    "name": "id",
                    "type": "uint256"
                }
            ],
            "name": "FundCreated",
            "type": "event"
        },
        {
            "anonymous": false,
            "inputs": [
                {
                    "indexed": false,
                    "internalType": "address",
                    "name": "project",
                    "type": "address"
                },
                {
                    "indexed": false,
                    "internalType": "uint256",
                    "name": "fee",
                    "type": "uint256"
                }
            ],
            "name": "FundingFee",
            "type": "event"
        },
        {
            "anonymous": false,
            "inputs": [
                {
                    "indexed": false,
                    "internalType": "address",
                    "name": "owner",
                    "type": "address"
                },
                {
                    "indexed": false,
                    "internalType": "uint256",
                    "name": "cap",
                    "type": "uint256"
                },
                {
                    "indexed": false,
                    "internalType": "uint256",
                    "name": "fundId",
                    "type": "uint256"
                }
            ],
            "name": "MicroClosed",
            "type": "event"
        },
        {
            "anonymous": false,
            "inputs": [
                {
                    "indexed": false,
                    "internalType": "address",
                    "name": "owner",
                    "type": "address"
                },
                {
                    "indexed": false,
                    "internalType": "uint256",
                    "name": "cap",
                    "type": "uint256"
                },
                {
                    "indexed": false,
                    "internalType": "uint256",
                    "name": "fundId",
                    "type": "uint256"
                }
            ],
            "name": "MicroCreated",
            "type": "event"
        },
        {
            "anonymous": false,
            "inputs": [
                {
                    "indexed": false,
                    "internalType": "address",
                    "name": "owner",
                    "type": "address"
                },
                {
                    "indexed": false,
                    "internalType": "uint256",
                    "name": "amount",
                    "type": "uint256"
                },
                {
                    "indexed": false,
                    "internalType": "uint256",
                    "name": "fundId",
                    "type": "uint256"
                }
            ],
            "name": "MicroDrained",
            "type": "event"
        },
        {
            "anonymous": false,
            "inputs": [
                {
                    "indexed": true,
                    "internalType": "address",
                    "name": "previousOwner",
                    "type": "address"
                },
                {
                    "indexed": true,
                    "internalType": "address",
                    "name": "newOwner",
                    "type": "address"
                }
            ],
            "name": "OwnershipTransferred",
            "type": "event"
        },
        {
            "anonymous": false,
            "inputs": [
                {
                    "indexed": false,
                    "internalType": "address",
                    "name": "microOwner",
                    "type": "address"
                },
                {
                    "indexed": false,
                    "internalType": "uint256",
                    "name": "balance",
                    "type": "uint256"
                },
                {
                    "indexed": false,
                    "internalType": "address",
                    "name": "fundOwner",
                    "type": "address"
                }
            ],
            "name": "Returned",
            "type": "event"
        },
        {
            "inputs": [],
            "name": "batchDistribute",
            "outputs": [],
            "stateMutability": "nonpayable",
            "type": "function"
        },
        {
            "inputs": [
                {
                    "internalType": "uint256",
                    "name": "_index",
                    "type": "uint256"
                },
                {
                    "internalType": "uint256",
                    "name": "_amount",
                    "type": "uint256"
                }
            ],
            "name": "calcInvolvedMicros",
            "outputs": [
                {
                    "internalType": "uint256",
                    "name": "",
                    "type": "uint256"
                }
            ],
            "stateMutability": "view",
            "type": "function"
        },
        {
            "inputs": [
                {
                    "internalType": "uint256",
                    "name": "_index",
                    "type": "uint256"
                },
                {
                    "internalType": "uint256",
                    "name": "_amount",
                    "type": "uint256"
                }
            ],
            "name": "calcOutcome",
            "outputs": [
                {
                    "internalType": "uint256",
                    "name": "",
                    "type": "uint256"
                }
            ],
            "stateMutability": "view",
            "type": "function"
        },
        {
            "inputs": [
                {
                    "internalType": "uint256",
                    "name": "_id",
                    "type": "uint256"
                }
            ],
            "name": "cancelFund",
            "outputs": [],
            "stateMutability": "nonpayable",
            "type": "function"
        },
        {
            "inputs": [
                {
                    "internalType": "uint256",
                    "name": "_amountM",
                    "type": "uint256"
                },
                {
                    "internalType": "uint256",
                    "name": "_amountD",
                    "type": "uint256"
                },
                {
                    "internalType": "uint256",
                    "name": "_id",
                    "type": "uint256"
                }
            ],
            "name": "contribute",
            "outputs": [],
            "stateMutability": "nonpayable",
            "type": "function"
        },
        {
            "inputs": [
                {
                    "internalType": "uint256",
                    "name": "_level1",
                    "type": "uint256"
                },
                {
                    "internalType": "uint256",
                    "name": "_level2",
                    "type": "uint256"
                },
                {
                    "internalType": "uint256",
                    "name": "_level3",
                    "type": "uint256"
                },
                {
                    "internalType": "uint256",
                    "name": "_level4",
                    "type": "uint256"
                },
                {
                    "internalType": "uint256",
                    "name": "_level5",
                    "type": "uint256"
                }
            ],
            "name": "createFund",
            "outputs": [],
            "stateMutability": "nonpayable",
            "type": "function"
        },
        {
            "inputs": [
                {
                    "internalType": "uint256",
                    "name": "_id",
                    "type": "uint256"
                }
            ],
            "name": "distribute",
            "outputs": [],
            "stateMutability": "nonpayable",
            "type": "function"
        },
        {
            "inputs": [
                {
                    "internalType": "uint256",
                    "name": "",
                    "type": "uint256"
                }
            ],
            "name": "donations",
            "outputs": [
                {
                    "internalType": "uint256",
                    "name": "id",
                    "type": "uint256"
                },
                {
                    "internalType": "uint256",
                    "name": "fundId",
                    "type": "uint256"
                },
                {
                    "internalType": "address",
                    "name": "backer",
                    "type": "address"
                },
                {
                    "internalType": "uint256",
                    "name": "amount",
                    "type": "uint256"
                },
                {
                    "internalType": "uint256",
                    "name": "state",
                    "type": "uint256"
                }
            ],
            "stateMutability": "view",
            "type": "function"
        },
        {
            "inputs": [],
            "name": "feeAddress",
            "outputs": [
                {
                    "internalType": "address",
                    "name": "",
                    "type": "address"
                }
            ],
            "stateMutability": "view",
            "type": "function"
        },
        {
            "inputs": [
                {
                    "internalType": "uint256",
                    "name": "",
                    "type": "uint256"
                }
            ],
            "name": "funds",
            "outputs": [
                {
                    "internalType": "uint256",
                    "name": "id",
                    "type": "uint256"
                },
                {
                    "internalType": "address",
                    "name": "owner",
                    "type": "address"
                },
                {
                    "internalType": "uint256",
                    "name": "balance",
                    "type": "uint256"
                },
                {
                    "internalType": "uint256",
                    "name": "state",
                    "type": "uint256"
                },
                {
                    "internalType": "uint256",
                    "name": "currency",
                    "type": "uint256"
                },
                {
                    "internalType": "uint256",
                    "name": "level1",
                    "type": "uint256"
                },
                {
                    "internalType": "uint256",
                    "name": "level2",
                    "type": "uint256"
                },
                {
                    "internalType": "uint256",
                    "name": "level3",
                    "type": "uint256"
                },
                {
                    "internalType": "uint256",
                    "name": "level4",
                    "type": "uint256"
                },
                {
                    "internalType": "uint256",
                    "name": "level5",
                    "type": "uint256"
                }
            ],
            "stateMutability": "view",
            "type": "function"
        },
        {
            "inputs": [
                {
                    "internalType": "uint256",
                    "name": "_index",
                    "type": "uint256"
                }
            ],
            "name": "getConnectedMicroFunds",
            "outputs": [
                {
                    "internalType": "uint256",
                    "name": "",
                    "type": "uint256"
                }
            ],
            "stateMutability": "view",
            "type": "function"
        },
        {
            "inputs": [
                {
                    "internalType": "uint256",
                    "name": "_index",
                    "type": "uint256"
                }
            ],
            "name": "getFundInfo",
            "outputs": [
                {
                    "internalType": "uint256",
                    "name": "state",
                    "type": "uint256"
                },
                {
                    "internalType": "uint256",
                    "name": "max",
                    "type": "uint256"
                },
                {
                    "internalType": "uint256",
                    "name": "balance",
                    "type": "uint256"
                }
            ],
            "stateMutability": "view",
            "type": "function"
        },
        {
            "inputs": [
                {
                    "internalType": "uint256",
                    "name": "_index",
                    "type": "uint256"
                }
            ],
            "name": "getMicroFundInfo",
            "outputs": [
                {
                    "internalType": "uint256",
                    "name": "state",
                    "type": "uint256"
                },
                {
                    "internalType": "uint256",
                    "name": "max",
                    "type": "uint256"
                },
                {
                    "internalType": "uint256",
                    "name": "balance",
                    "type": "uint256"
                }
            ],
            "stateMutability": "view",
            "type": "function"
        },
        {
            "inputs": [
                {
                    "internalType": "uint256",
                    "name": "",
                    "type": "uint256"
                }
            ],
            "name": "microFunds",
            "outputs": [
                {
                    "internalType": "uint256",
                    "name": "microId",
                    "type": "uint256"
                },
                {
                    "internalType": "address",
                    "name": "owner",
                    "type": "address"
                },
                {
                    "internalType": "uint256",
                    "name": "cap",
                    "type": "uint256"
                },
                {
                    "internalType": "uint256",
                    "name": "microBalance",
                    "type": "uint256"
                },
                {
                    "internalType": "uint256",
                    "name": "fundId",
                    "type": "uint256"
                },
                {
                    "internalType": "uint256",
                    "name": "state",
                    "type": "uint256"
                }
            ],
            "stateMutability": "view",
            "type": "function"
        },
        {
            "inputs": [],
            "name": "minAmount",
            "outputs": [
                {
                    "internalType": "uint256",
                    "name": "",
                    "type": "uint256"
                }
            ],
            "stateMutability": "view",
            "type": "function"
        },
        {
            "inputs": [],
            "name": "owner",
            "outputs": [
                {
                    "internalType": "address",
                    "name": "",
                    "type": "address"
                }
            ],
            "stateMutability": "view",
            "type": "function"
        },
        {
            "inputs": [],
            "name": "renounceOwnership",
            "outputs": [],
            "stateMutability": "nonpayable",
            "type": "function"
        },
        {
            "inputs": [
                {
                    "internalType": "uint256",
                    "name": "_min",
                    "type": "uint256"
                }
            ],
            "name": "setMinimum",
            "outputs": [],
            "stateMutability": "nonpayable",
            "type": "function"
        },
        {
            "inputs": [],
            "name": "token",
            "outputs": [
                {
                    "internalType": "contract IERC20",
                    "name": "",
                    "type": "address"
                }
            ],
            "stateMutability": "view",
            "type": "function"
        },
        {
            "inputs": [
                {
                    "internalType": "address",
                    "name": "newOwner",
                    "type": "address"
                }
            ],
            "name": "transferOwnership",
            "outputs": [],
            "stateMutability": "nonpayable",
            "type": "function"
        },
        {
            "inputs": [],
            "name": "usdc",
            "outputs": [
                {
                    "internalType": "contract IERC20",
                    "name": "",
                    "type": "address"
                }
            ],
            "stateMutability": "view",
            "type": "function"
        }
    ],
    "bytecode": "0x608060405273c21223249ca28397b4b6541dffaecc539bff0c59600460006101000a81548173ffffffffffffffffffffffffffffffffffffffff021916908373ffffffffffffffffffffffffffffffffffffffff1602179055506103e86005553480156200006c57600080fd5b50604051620042e1380380620042e1833981810160405281019062000092919062000279565b620000b2620000a66200014360201b60201c565b6200014b60201b60201c565b6001808190555081600260006101000a81548173ffffffffffffffffffffffffffffffffffffffff021916908373ffffffffffffffffffffffffffffffffffffffff16021790555080600360006101000a81548173ffffffffffffffffffffffffffffffffffffffff021916908373ffffffffffffffffffffffffffffffffffffffff1602179055505050620002c0565b600033905090565b60008060009054906101000a900473ffffffffffffffffffffffffffffffffffffffff169050816000806101000a81548173ffffffffffffffffffffffffffffffffffffffff021916908373ffffffffffffffffffffffffffffffffffffffff1602179055508173ffffffffffffffffffffffffffffffffffffffff168173ffffffffffffffffffffffffffffffffffffffff167f8be0079c531659141344cd1fd0a4f28419497f9722a3daafe3b4186f6b6457e060405160405180910390a35050565b600080fd5b600073ffffffffffffffffffffffffffffffffffffffff82169050919050565b6000620002418262000214565b9050919050565b620002538162000234565b81146200025f57600080fd5b50565b600081519050620002738162000248565b92915050565b600080604083850312156200029357620002926200020f565b5b6000620002a38582860162000262565b9250506020620002b68582860162000262565b9150509250929050565b61401180620002d06000396000f3fe608060405234801561001057600080fd5b50600436106101375760003560e01c80639b2cb5d8116100b8578063dcb5ef141161007c578063dcb5ef1414610374578063e481052414610390578063f2fde38b146103ac578063f8626af8146103c8578063fc0c546a146103fc578063ff8c55dd1461041a57610137565b80639b2cb5d814610294578063a4f10f0e146102b2578063b318c837146102e2578063b7fa105614610312578063be7aec531461034457610137565b8063715018a6116100ff578063715018a6146101fb5780637b8e8895146102055780637d98adaf1461023e5780638da5cb5b1461025a57806391c05b0b1461027857610137565b806316055fa81461013c5780633209e9e6146101715780633e413bee1461018d5780633ece1042146101ab57806341275358146101dd575b600080fd5b61015660048036038101906101519190613305565b610424565b60405161016896959493929190613382565b60405180910390f35b61018b60048036038101906101869190613305565b610490565b005b6101956104a2565b6040516101a29190613442565b60405180910390f35b6101c560048036038101906101c09190613305565b6104c8565b6040516101d49392919061345d565b60405180910390f35b6101e561050f565b6040516101f29190613494565b60405180910390f35b610203610535565b005b61021f600480360381019061021a9190613305565b610549565b6040516102359a999897969594939291906134af565b60405180910390f35b6102586004803603810190610253919061354b565b6105cd565b005b610262610b0e565b60405161026f9190613494565b60405180910390f35b610292600480360381019061028d9190613305565b610b37565b005b61029c611e4a565b6040516102a9919061359e565b60405180910390f35b6102cc60048036038101906102c79190613305565b611e50565b6040516102d9919061359e565b60405180910390f35b6102fc60048036038101906102f791906135b9565b611ec0565b604051610309919061359e565b60405180910390f35b61032c60048036038101906103279190613305565b611fd1565b60405161033b9392919061345d565b60405180910390f35b61035e600480360381019061035991906135b9565b612018565b60405161036b919061359e565b60405180910390f35b61038e600480360381019061038991906135f9565b61211b565b005b6103aa60048036038101906103a59190613305565b61238e565b005b6103c660048036038101906103c191906136a0565b612b6f565b005b6103e260048036038101906103dd9190613305565b612bf3565b6040516103f39594939291906136cd565b60405180910390f35b610404612c59565b6040516104119190613442565b60405180910390f35b610422612c7f565b005b6007818154811061043457600080fd5b90600052602060002090600602016000915090508060000154908060010160009054906101000a900473ffffffffffffffffffffffffffffffffffffffff16908060020154908060030154908060040154908060050154905086565b610498612d90565b8060058190555050565b600360009054906101000a900473ffffffffffffffffffffffffffffffffffffffff1681565b600080600080600685815481106104e2576104e1613720565b5b90600052602060002090600a02019050806003015481600901548260020154935093509350509193909250565b600460009054906101000a900473ffffffffffffffffffffffffffffffffffffffff1681565b61053d612d90565b6105476000612e0e565b565b6006818154811061055957600080fd5b90600052602060002090600a02016000915090508060000154908060010160009054906101000a900473ffffffffffffffffffffffffffffffffffffffff1690806002015490806003015490806004015490806005015490806006015490806007015490806008015490806009015490508a565b600073ffffffffffffffffffffffffffffffffffffffff163373ffffffffffffffffffffffffffffffffffffffff16141561063d576040517f08c379a0000000000000000000000000000000000000000000000000000000008152600401610634906137ac565b60405180910390fd5b6000831015610681576040517f08c379a000000000000000000000000000000000000000000000000000000000815260040161067890613818565b60405180910390fd5b60008210156106c5576040517f08c379a00000000000000000000000000000000000000000000000000000000081526004016106bc90613818565b60405180910390fd5b6001600682815481106106db576106da613720565b5b90600052602060002090600a0201600301541461072d576040517f08c379a000000000000000000000000000000000000000000000000000000000815260040161072490613884565b60405180910390fd5b60006006828154811061074357610742613720565b5b90600052602060002090600a020160040154141561081d57600260009054906101000a900473ffffffffffffffffffffffffffffffffffffffff1673ffffffffffffffffffffffffffffffffffffffff166323b872dd333086866107a791906138d3565b6040518463ffffffff1660e01b81526004016107c593929190613929565b602060405180830381600087803b1580156107df57600080fd5b505af11580156107f3573d6000803e3d6000fd5b505050506040513d601f19601f820116820180604052508101906108179190613998565b50610949565b60016006828154811061083357610832613720565b5b90600052602060002090600a020160040154141561090d57600360009054906101000a900473ffffffffffffffffffffffffffffffffffffffff1673ffffffffffffffffffffffffffffffffffffffff166323b872dd3330868661089791906138d3565b6040518463ffffffff1660e01b81526004016108b593929190613929565b602060405180830381600087803b1580156108cf57600080fd5b505af11580156108e3573d6000803e3d6000fd5b505050506040513d601f19601f820116820180604052508101906109079190613998565b50610948565b6040517f08c379a000000000000000000000000000000000000000000000000000000000815260040161093f90613a11565b60405180910390fd5b5b60008211156109d457816006828154811061096757610966613720565b5b90600052602060002090600a0201600201600082825461098791906138d3565b925050819055507f4928895ba6723e8e27b15f32e4c3054a1b6c7f8c03f133558d6fa42b3928d14c3383836040516109c193929190613a31565b60405180910390a16109d38183612ed2565b5b6000831115610b095760076040518060c0016040528060078054905081526020013373ffffffffffffffffffffffffffffffffffffffff16815260200185815260200160008152602001838152602001600181525090806001815401808255809150506001900390600052602060002090600602016000909190919091506000820151816000015560208201518160010160006101000a81548173ffffffffffffffffffffffffffffffffffffffff021916908373ffffffffffffffffffffffffffffffffffffffff16021790555060408201518160020155606082015181600301556080820151816004015560a0820151816005015550507ff063c0df9b2896b63568ae0044926eceb22a0eb7a0d0407b01d58c9ef81de6d4338483604051610b0093929190613a31565b60405180910390a15b505050565b60008060009054906101000a900473ffffffffffffffffffffffffffffffffffffffff16905090565b610b3f612d90565b60026001541415610b85576040517f08c379a0000000000000000000000000000000000000000000000000000000008152600401610b7c90613ab4565b60405180910390fd5b6002600181905550600160068281548110610ba357610ba2613720565b5b90600052602060002090600a02016003015414610bf5576040517f08c379a0000000000000000000000000000000000000000000000000000000008152600401610bec90613884565b60405180910390fd5b600060068281548110610c0b57610c0a613720565b5b90600052602060002090600a02016004015414156115675760068181548110610c3757610c36613720565b5b90600052602060002090600a020160020154600260009054906101000a900473ffffffffffffffffffffffffffffffffffffffff1673ffffffffffffffffffffffffffffffffffffffff166370a08231306040518263ffffffff1660e01b8152600401610ca49190613494565b60206040518083038186803b158015610cbc57600080fd5b505afa158015610cd0573d6000803e3d6000fd5b505050506040513d601f19601f82011682018060405250810190610cf49190613ae9565b1015610d35576040517f08c379a0000000000000000000000000000000000000000000000000000000008152600401610d2c90613b88565b60405180910390fd5b600260009054906101000a900473ffffffffffffffffffffffffffffffffffffffff1673ffffffffffffffffffffffffffffffffffffffff1663095ea7b33060068481548110610d8857610d87613720565b5b90600052602060002090600a0201600201546040518363ffffffff1660e01b8152600401610db7929190613ba8565b602060405180830381600087803b158015610dd157600080fd5b505af1158015610de5573d6000803e3d6000fd5b505050506040513d601f19601f82011682018060405250810190610e099190613998565b5060006064600160068481548110610e2457610e23613720565b5b90600052602060002090600a020160020154610e409190613bd1565b610e4a9190613c5a565b905060008160068481548110610e6357610e62613720565b5b90600052602060002090600a020160020154610e7f9190613c8b565b9050600260009054906101000a900473ffffffffffffffffffffffffffffffffffffffff1673ffffffffffffffffffffffffffffffffffffffff166323b872dd30600460009054906101000a900473ffffffffffffffffffffffffffffffffffffffff16856040518463ffffffff1660e01b8152600401610f0293929190613929565b602060405180830381600087803b158015610f1c57600080fd5b505af1158015610f30573d6000803e3d6000fd5b505050506040513d601f19601f82011682018060405250810190610f549190613998565b507fbd7be181889421a250b191cccf6016a1956adc1f1f75af42434f320ad4fd4e0160068481548110610f8a57610f89613720565b5b90600052602060002090600a020160010160009054906101000a900473ffffffffffffffffffffffffffffffffffffffff1683604051610fcb929190613ba8565b60405180910390a1600260009054906101000a900473ffffffffffffffffffffffffffffffffffffffff1673ffffffffffffffffffffffffffffffffffffffff166323b872dd306006868154811061102657611025613720565b5b90600052602060002090600a020160010160009054906101000a900473ffffffffffffffffffffffffffffffffffffffff16846040518463ffffffff1660e01b815260040161107793929190613929565b602060405180830381600087803b15801561109157600080fd5b505af11580156110a5573d6000803e3d6000fd5b505050506040513d601f19601f820116820180604052508101906110c99190613998565b506002600684815481106110e0576110df613720565b5b90600052602060002090600a0201600301819055507fb649c98f58055c520df0dcb5709eff2e931217ff2fb1e21376130d31bbb1c0af6006848154811061112a57611129613720565b5b90600052602060002090600a020160010160009054906101000a900473ffffffffffffffffffffffffffffffffffffffff16600685815481106111705761116f613720565b5b90600052602060002090600a020160020154604051611190929190613ba8565b60405180910390a160005b60078054905081101561155f5783600782815481106111bd576111bc613720565b5b90600052602060002090600602016004015414801561120157506001600782815481106111ed576111ec613720565b5b906000526020600020906006020160050154145b1561154c576007818154811061121a57611219613720565b5b906000526020600020906006020160030154600782815481106112405761123f613720565b5b90600052602060002090600602016002015411156115205760006007828154811061126e5761126d613720565b5b9060005260206000209060060201600301546007838154811061129457611293613720565b5b9060005260206000209060060201600201546112b09190613c8b565b9050600260009054906101000a900473ffffffffffffffffffffffffffffffffffffffff1673ffffffffffffffffffffffffffffffffffffffff1663095ea7b330836040518363ffffffff1660e01b815260040161130f929190613ba8565b602060405180830381600087803b15801561132957600080fd5b505af115801561133d573d6000803e3d6000fd5b505050506040513d601f19601f820116820180604052508101906113619190613998565b50600260009054906101000a900473ffffffffffffffffffffffffffffffffffffffff1673ffffffffffffffffffffffffffffffffffffffff166323b872dd30600788815481106113b5576113b4613720565b5b906000526020600020906006020160010160009054906101000a900473ffffffffffffffffffffffffffffffffffffffff16846040518463ffffffff1660e01b815260040161140693929190613929565b602060405180830381600087803b15801561142057600080fd5b505af1158015611434573d6000803e3d6000fd5b505050506040513d601f19601f820116820180604052508101906114589190613998565b507f98c105e3bc1ca4c7a99cdea9cd2e2c7a0fbf623404262d3dfd0a152545bd25ad6007838154811061148e5761148d613720565b5b906000526020600020906006020160010160009054906101000a900473ffffffffffffffffffffffffffffffffffffffff1682600688815481106114d5576114d4613720565b5b90600052602060002090600a020160010160009054906101000a900473ffffffffffffffffffffffffffffffffffffffff1660405161151693929190613cbf565b60405180910390a1505b60026007828154811061153657611535613720565b5b9060005260206000209060060201600501819055505b808061155790613cf6565b91505061119b565b505050611e40565b60016006828154811061157d5761157c613720565b5b90600052602060002090600a0201600401541415611e0457600681815481106115a9576115a8613720565b5b90600052602060002090600a020160020154600360009054906101000a900473ffffffffffffffffffffffffffffffffffffffff1673ffffffffffffffffffffffffffffffffffffffff166370a08231306040518263ffffffff1660e01b81526004016116169190613494565b60206040518083038186803b15801561162e57600080fd5b505afa158015611642573d6000803e3d6000fd5b505050506040513d601f19601f820116820180604052508101906116669190613ae9565b10156116a7576040517f08c379a000000000000000000000000000000000000000000000000000000000815260040161169e90613b88565b60405180910390fd5b600060646001600684815481106116c1576116c0613720565b5b90600052602060002090600a0201600201546116dd9190613bd1565b6116e79190613c5a565b905060008160068481548110611700576116ff613720565b5b90600052602060002090600a02016002015461171c9190613c8b565b9050600360009054906101000a900473ffffffffffffffffffffffffffffffffffffffff1673ffffffffffffffffffffffffffffffffffffffff166323b872dd30600460009054906101000a900473ffffffffffffffffffffffffffffffffffffffff16856040518463ffffffff1660e01b815260040161179f93929190613929565b602060405180830381600087803b1580156117b957600080fd5b505af11580156117cd573d6000803e3d6000fd5b505050506040513d601f19601f820116820180604052508101906117f19190613998565b507fbd7be181889421a250b191cccf6016a1956adc1f1f75af42434f320ad4fd4e016006848154811061182757611826613720565b5b90600052602060002090600a020160010160009054906101000a900473ffffffffffffffffffffffffffffffffffffffff1683604051611868929190613ba8565b60405180910390a1600360009054906101000a900473ffffffffffffffffffffffffffffffffffffffff1673ffffffffffffffffffffffffffffffffffffffff166323b872dd30600686815481106118c3576118c2613720565b5b90600052602060002090600a020160010160009054906101000a900473ffffffffffffffffffffffffffffffffffffffff16846040518463ffffffff1660e01b815260040161191493929190613929565b602060405180830381600087803b15801561192e57600080fd5b505af1158015611942573d6000803e3d6000fd5b505050506040513d601f19601f820116820180604052508101906119669190613998565b5060026006848154811061197d5761197c613720565b5b90600052602060002090600a0201600301819055507fb649c98f58055c520df0dcb5709eff2e931217ff2fb1e21376130d31bbb1c0af600684815481106119c7576119c6613720565b5b90600052602060002090600a020160010160009054906101000a900473ffffffffffffffffffffffffffffffffffffffff1660068581548110611a0d57611a0c613720565b5b90600052602060002090600a020160020154604051611a2d929190613ba8565b60405180910390a160005b600780549050811015611dfc578360078281548110611a5a57611a59613720565b5b906000526020600020906006020160040154148015611a9e5750600160078281548110611a8a57611a89613720565b5b906000526020600020906006020160050154145b15611de95760078181548110611ab757611ab6613720565b5b90600052602060002090600602016003015460078281548110611add57611adc613720565b5b9060005260206000209060060201600201541115611dbd57600060078281548110611b0b57611b0a613720565b5b90600052602060002090600602016003015460078381548110611b3157611b30613720565b5b906000526020600020906006020160020154611b4d9190613c8b565b9050600360009054906101000a900473ffffffffffffffffffffffffffffffffffffffff1673ffffffffffffffffffffffffffffffffffffffff1663095ea7b330836040518363ffffffff1660e01b8152600401611bac929190613ba8565b602060405180830381600087803b158015611bc657600080fd5b505af1158015611bda573d6000803e3d6000fd5b505050506040513d601f19601f82011682018060405250810190611bfe9190613998565b50600360009054906101000a900473ffffffffffffffffffffffffffffffffffffffff1673ffffffffffffffffffffffffffffffffffffffff166323b872dd3060078881548110611c5257611c51613720565b5b906000526020600020906006020160010160009054906101000a900473ffffffffffffffffffffffffffffffffffffffff16846040518463ffffffff1660e01b8152600401611ca393929190613929565b602060405180830381600087803b158015611cbd57600080fd5b505af1158015611cd1573d6000803e3d6000fd5b505050506040513d601f19601f82011682018060405250810190611cf59190613998565b507f98c105e3bc1ca4c7a99cdea9cd2e2c7a0fbf623404262d3dfd0a152545bd25ad60078381548110611d2b57611d2a613720565b5b906000526020600020906006020160010160009054906101000a900473ffffffffffffffffffffffffffffffffffffffff168260068881548110611d7257611d71613720565b5b90600052602060002090600a020160010160009054906101000a900473ffffffffffffffffffffffffffffffffffffffff16604051611db393929190613cbf565b60405180910390a1505b600260078281548110611dd357611dd2613720565b5b9060005260206000209060060201600501819055505b8080611df490613cf6565b915050611a38565b505050611e3f565b6040517f08c379a0000000000000000000000000000000000000000000000000000000008152600401611e3690613a11565b60405180910390fd5b5b6001808190555050565b60055481565b6000806000905060005b600780549050811015611eb6578360078281548110611e7c57611e7b613720565b5b9060005260206000209060060201600401541415611ea3578180611e9f90613cf6565b9250505b8080611eae90613cf6565b915050611e5a565b5080915050919050565b600080600090508281611ed391906138d3565b905060005b600780549050811015611fc6578460078281548110611efa57611ef9613720565b5b906000526020600020906006020160040154148015611f3e5750600160078281548110611f2a57611f29613720565b5b906000526020600020906006020160050154145b8015611f9f57508360078281548110611f5a57611f59613720565b5b90600052602060002090600602016003015460078381548110611f8057611f7f613720565b5b906000526020600020906006020160020154611f9c9190613c8b565b10155b15611fb3578382611fb091906138d3565b91505b8080611fbe90613cf6565b915050611ed8565b508091505092915050565b60008060008060078581548110611feb57611fea613720565b5b90600052602060002090600602019050806005015481600301548260020154935093509350509193909250565b6000806000905060005b60078054905081101561211057846007828154811061204457612043613720565b5b906000526020600020906006020160040154148015612088575060016007828154811061207457612073613720565b5b906000526020600020906006020160050154145b80156120e9575083600782815481106120a4576120a3613720565b5b906000526020600020906006020160030154600783815481106120ca576120c9613720565b5b9060005260206000209060060201600201546120e69190613c8b565b10155b156120fd5781806120f990613cf6565b9250505b808061210890613cf6565b915050612022565b508091505092915050565b600073ffffffffffffffffffffffffffffffffffffffff163373ffffffffffffffffffffffffffffffffffffffff16141561218b576040517f08c379a0000000000000000000000000000000000000000000000000000000008152600401612182906137ac565b60405180910390fd5b600085116121ce576040517f08c379a00000000000000000000000000000000000000000000000000000000081526004016121c590613818565b60405180910390fd5b600554851015612213576040517f08c379a000000000000000000000000000000000000000000000000000000000815260040161220a90613d8b565b60405180910390fd5b600660405180610140016040528060068054905081526020013373ffffffffffffffffffffffffffffffffffffffff1681526020016000815260200160018152602001600081526020018781526020018681526020018581526020018481526020018381525090806001815401808255809150506001900390600052602060002090600a02016000909190919091506000820151816000015560208201518160010160006101000a81548173ffffffffffffffffffffffffffffffffffffffff021916908373ffffffffffffffffffffffffffffffffffffffff16021790555060408201518160020155606082015181600301556080820151816004015560a0820151816005015560c0820151816006015560e082015181600701556101008201518160080155610120820151816009015550507ff18ce1b70b1a4044491b54196c83d95e67aae09483ce0d2e1c2a8189faca7644338660068054905060405161237f93929190613a31565b60405180910390a15050505050565b600260015414156123d4576040517f08c379a00000000000000000000000000000000000000000000000000000000081526004016123cb90613ab4565b60405180910390fd5b60026001819055506001600682815481106123f2576123f1613720565b5b90600052602060002090600a02016003015414612444576040517f08c379a000000000000000000000000000000000000000000000000000000000815260040161243b90613884565b60405180910390fd5b6006818154811061245857612457613720565b5b90600052602060002090600a020160020154600260009054906101000a900473ffffffffffffffffffffffffffffffffffffffff1673ffffffffffffffffffffffffffffffffffffffff166370a08231306040518263ffffffff1660e01b81526004016124c59190613494565b60206040518083038186803b1580156124dd57600080fd5b505afa1580156124f1573d6000803e3d6000fd5b505050506040513d601f19601f820116820180604052508101906125159190613ae9565b1015612556576040517f08c379a000000000000000000000000000000000000000000000000000000000815260040161254d90613b88565b60405180910390fd5b6007818154811061256a57612569613720565b5b906000526020600020906006020160010160009054906101000a900473ffffffffffffffffffffffffffffffffffffffff1673ffffffffffffffffffffffffffffffffffffffff163373ffffffffffffffffffffffffffffffffffffffff16148061260057503073ffffffffffffffffffffffffffffffffffffffff163373ffffffffffffffffffffffffffffffffffffffff16145b15612b655760005b600780549050811015612aca57816007828154811061262a57612629613720565b5b90600052602060002090600602016004015414801561266e575060016007828154811061265a57612659613720565b5b906000526020600020906006020160050154145b15612ab7576007818154811061268757612686613720565b5b906000526020600020906006020160030154600782815481106126ad576126ac613720565b5b9060005260206000209060060201600201541115612a8b57600260009054906101000a900473ffffffffffffffffffffffffffffffffffffffff1673ffffffffffffffffffffffffffffffffffffffff1663095ea7b3306007858154811061271857612717613720565b5b9060005260206000209060060201600201546040518363ffffffff1660e01b8152600401612747929190613ba8565b602060405180830381600087803b15801561276157600080fd5b505af1158015612775573d6000803e3d6000fd5b505050506040513d601f19601f820116820180604052508101906127999190613998565b50600260009054906101000a900473ffffffffffffffffffffffffffffffffffffffff1673ffffffffffffffffffffffffffffffffffffffff166323b872dd30600785815481106127ed576127ec613720565b5b906000526020600020906006020160010160009054906101000a900473ffffffffffffffffffffffffffffffffffffffff166007868154811061283357612832613720565b5b9060005260206000209060060201600201546040518463ffffffff1660e01b815260040161286393929190613929565b602060405180830381600087803b15801561287d57600080fd5b505af1158015612891573d6000803e3d6000fd5b505050506040513d601f19601f820116820180604052508101906128b59190613998565b506129a06040518060400160405280601581526020017f436f6e7472616374207374696c6c206861732025730000000000000000000000815250600260009054906101000a900473ffffffffffffffffffffffffffffffffffffffff1673ffffffffffffffffffffffffffffffffffffffff166370a08231306040518263ffffffff1660e01b815260040161294a9190613494565b60206040518083038186803b15801561296257600080fd5b505afa158015612976573d6000803e3d6000fd5b505050506040513d601f19601f8201168201806040525081019061299a9190613ae9565b836131fa565b7f98c105e3bc1ca4c7a99cdea9cd2e2c7a0fbf623404262d3dfd0a152545bd25ad600782815481106129d5576129d4613720565b5b906000526020600020906006020160010160009054906101000a900473ffffffffffffffffffffffffffffffffffffffff1660078481548110612a1b57612a1a613720565b5b90600052602060002090600602016002015460068581548110612a4157612a40613720565b5b90600052602060002090600a020160010160009054906101000a900473ffffffffffffffffffffffffffffffffffffffff16604051612a8293929190613cbf565b60405180910390a15b600260078281548110612aa157612aa0613720565b5b9060005260206000209060060201600501819055505b8080612ac290613cf6565b915050612608565b50600060068281548110612ae157612ae0613720565b5b90600052602060002090600a0201600201541415612b2957600260068281548110612b0f57612b0e613720565b5b90600052602060002090600a020160030181905550612b64565b6040517f08c379a0000000000000000000000000000000000000000000000000000000008152600401612b5b90613df7565b60405180910390fd5b5b6001808190555050565b612b77612d90565b600073ffffffffffffffffffffffffffffffffffffffff168173ffffffffffffffffffffffffffffffffffffffff161415612be7576040517f08c379a0000000000000000000000000000000000000000000000000000000008152600401612bde90613e89565b60405180910390fd5b612bf081612e0e565b50565b60088181548110612c0357600080fd5b90600052602060002090600502016000915090508060000154908060010154908060020160009054906101000a900473ffffffffffffffffffffffffffffffffffffffff16908060030154908060040154905085565b600260009054906101000a900473ffffffffffffffffffffffffffffffffffffffff1681565b612c87612d90565b60026001541415612ccd576040517f08c379a0000000000000000000000000000000000000000000000000000000008152600401612cc490613ab4565b60405180910390fd5b600260018190555060005b600680549050811015612d8657600160068281548110612cfb57612cfa613720565b5b90600052602060002090600a020160030154148015612d64575060068181548110612d2957612d28613720565b5b90600052602060002090600a02016005015460068281548110612d4f57612d4e613720565b5b90600052602060002090600a02016002015410155b15612d7357612d7281610b37565b5b8080612d7e90613cf6565b915050612cd8565b5060018081905550565b612d98613299565b73ffffffffffffffffffffffffffffffffffffffff16612db6610b0e565b73ffffffffffffffffffffffffffffffffffffffff1614612e0c576040517f08c379a0000000000000000000000000000000000000000000000000000000008152600401612e0390613ef5565b60405180910390fd5b565b60008060009054906101000a900473ffffffffffffffffffffffffffffffffffffffff169050816000806101000a81548173ffffffffffffffffffffffffffffffffffffffff021916908373ffffffffffffffffffffffffffffffffffffffff1602179055508173ffffffffffffffffffffffffffffffffffffffff168173ffffffffffffffffffffffffffffffffffffffff167f8be0079c531659141344cd1fd0a4f28419497f9722a3daafe3b4186f6b6457e060405160405180910390a35050565b60005b6007805490508110156131f5578160078281548110612ef757612ef6613720565b5b90600052602060002090600602016003015460078381548110612f1d57612f1c613720565b5b906000526020600020906006020160020154612f399190613c8b565b10158015612f6b57508260078281548110612f5757612f56613720565b5b906000526020600020906006020160040154145b8015612f9c5750600160078281548110612f8857612f87613720565b5b906000526020600020906006020160050154145b156131e2578160078281548110612fb657612fb5613720565b5b90600052602060002090600602016003016000828254612fd691906138d3565b925050819055508160068481548110612ff257612ff1613720565b5b90600052602060002090600a0201600201600082825461301291906138d3565b925050819055506007818154811061302d5761302c613720565b5b9060005260206000209060060201600301546007828154811061305357613052613720565b5b90600052602060002090600602016002015414156131615760026007828154811061308157613080613720565b5b9060005260206000209060060201600501819055507f344f3c440bc0a199d8ebf3e014b04b0be7f494a3e35bc4c4b162dbf9edb24521600782815481106130cb576130ca613720565b5b906000526020600020906006020160010160009054906101000a900473ffffffffffffffffffffffffffffffffffffffff166007838154811061311157613110613720565b5b9060005260206000209060060201600201546007848154811061313757613136613720565b5b90600052602060002090600602016004015460405161315893929190613a31565b60405180910390a15b7ff8d3b803c2699d3e25440474a9089daa89195298415edaf5cb5ff73d4cad4d446007828154811061319657613195613720565b5b906000526020600020906006020160010160009054906101000a900473ffffffffffffffffffffffffffffffffffffffff1683856040516131d993929190613a31565b60405180910390a15b80806131ed90613cf6565b915050612ed5565b505050565b61329483838360405160240161321293929190613f9d565b6040516020818303038152906040527fca47c4eb000000000000000000000000000000000000000000000000000000007bffffffffffffffffffffffffffffffffffffffffffffffffffffffff19166020820180517bffffffffffffffffffffffffffffffffffffffffffffffffffffffff83818316178352505050506132a1565b505050565b600033905090565b60008151905060006a636f6e736f6c652e6c6f679050602083016000808483855afa5050505050565b600080fd5b6000819050919050565b6132e2816132cf565b81146132ed57600080fd5b50565b6000813590506132ff816132d9565b92915050565b60006020828403121561331b5761331a6132ca565b5b6000613329848285016132f0565b91505092915050565b61333b816132cf565b82525050565b600073ffffffffffffffffffffffffffffffffffffffff82169050919050565b600061336c82613341565b9050919050565b61337c81613361565b82525050565b600060c0820190506133976000830189613332565b6133a46020830188613373565b6133b16040830187613332565b6133be6060830186613332565b6133cb6080830185613332565b6133d860a0830184613332565b979650505050505050565b6000819050919050565b60006134086134036133fe84613341565b6133e3565b613341565b9050919050565b600061341a826133ed565b9050919050565b600061342c8261340f565b9050919050565b61343c81613421565b82525050565b60006020820190506134576000830184613433565b92915050565b60006060820190506134726000830186613332565b61347f6020830185613332565b61348c6040830184613332565b949350505050565b60006020820190506134a96000830184613373565b92915050565b6000610140820190506134c5600083018d613332565b6134d2602083018c613373565b6134df604083018b613332565b6134ec606083018a613332565b6134f96080830189613332565b61350660a0830188613332565b61351360c0830187613332565b61352060e0830186613332565b61352e610100830185613332565b61353c610120830184613332565b9b9a5050505050505050505050565b600080600060608486031215613564576135636132ca565b5b6000613572868287016132f0565b9350506020613583868287016132f0565b9250506040613594868287016132f0565b9150509250925092565b60006020820190506135b36000830184613332565b92915050565b600080604083850312156135d0576135cf6132ca565b5b60006135de858286016132f0565b92505060206135ef858286016132f0565b9150509250929050565b600080600080600060a08688031215613615576136146132ca565b5b6000613623888289016132f0565b9550506020613634888289016132f0565b9450506040613645888289016132f0565b9350506060613656888289016132f0565b9250506080613667888289016132f0565b9150509295509295909350565b61367d81613361565b811461368857600080fd5b50565b60008135905061369a81613674565b92915050565b6000602082840312156136b6576136b56132ca565b5b60006136c48482850161368b565b91505092915050565b600060a0820190506136e26000830188613332565b6136ef6020830187613332565b6136fc6040830186613373565b6137096060830185613332565b6137166080830184613332565b9695505050505050565b7f4e487b7100000000000000000000000000000000000000000000000000000000600052603260045260246000fd5b600082825260208201905092915050565b7f496e76616c696420616464726573730000000000000000000000000000000000600082015250565b6000613796600f8361374f565b91506137a182613760565b602082019050919050565b600060208201905081810360008301526137c581613789565b9050919050565b7f496e76616c696420616d6f756e74000000000000000000000000000000000000600082015250565b6000613802600e8361374f565b915061380d826137cc565b602082019050919050565b60006020820190508181036000830152613831816137f5565b9050919050565b7f46756e64206973206e6f74206163746976650000000000000000000000000000600082015250565b600061386e60128361374f565b915061387982613838565b602082019050919050565b6000602082019050818103600083015261389d81613861565b9050919050565b7f4e487b7100000000000000000000000000000000000000000000000000000000600052601160045260246000fd5b60006138de826132cf565b91506138e9836132cf565b9250827fffffffffffffffffffffffffffffffffffffffffffffffffffffffffffffffff0382111561391e5761391d6138a4565b5b828201905092915050565b600060608201905061393e6000830186613373565b61394b6020830185613373565b6139586040830184613332565b949350505050565b60008115159050919050565b61397581613960565b811461398057600080fd5b50565b6000815190506139928161396c565b92915050565b6000602082840312156139ae576139ad6132ca565b5b60006139bc84828501613983565b91505092915050565b7f496e76616c69642063757272656e637900000000000000000000000000000000600082015250565b60006139fb60108361374f565b9150613a06826139c5565b602082019050919050565b60006020820190508181036000830152613a2a816139ee565b9050919050565b6000606082019050613a466000830186613373565b613a536020830185613332565b613a606040830184613332565b949350505050565b7f5265656e7472616e637947756172643a207265656e7472616e742063616c6c00600082015250565b6000613a9e601f8361374f565b9150613aa982613a68565b602082019050919050565b60006020820190508181036000830152613acd81613a91565b9050919050565b600081519050613ae3816132d9565b92915050565b600060208284031215613aff57613afe6132ca565b5b6000613b0d84828501613ad4565b91505092915050565b7f4e6f7420656e6f75676820746f6b656e7320696e2074686520636f6e7472616360008201527f7400000000000000000000000000000000000000000000000000000000000000602082015250565b6000613b7260218361374f565b9150613b7d82613b16565b604082019050919050565b60006020820190508181036000830152613ba181613b65565b9050919050565b6000604082019050613bbd6000830185613373565b613bca6020830184613332565b9392505050565b6000613bdc826132cf565b9150613be7836132cf565b9250817fffffffffffffffffffffffffffffffffffffffffffffffffffffffffffffffff0483118215151615613c2057613c1f6138a4565b5b828202905092915050565b7f4e487b7100000000000000000000000000000000000000000000000000000000600052601260045260246000fd5b6000613c65826132cf565b9150613c70836132cf565b925082613c8057613c7f613c2b565b5b828204905092915050565b6000613c96826132cf565b9150613ca1836132cf565b925082821015613cb457613cb36138a4565b5b828203905092915050565b6000606082019050613cd46000830186613373565b613ce16020830185613332565b613cee6040830184613373565b949350505050565b6000613d01826132cf565b91507fffffffffffffffffffffffffffffffffffffffffffffffffffffffffffffffff821415613d3457613d336138a4565b5b600182019050919050565b7f4d696e696e6d756d20616d6f756e742069732073657420746f20313030300000600082015250565b6000613d75601e8361374f565b9150613d8082613d3f565b602082019050919050565b60006020820190508181036000830152613da481613d68565b9050919050565b7f50726f626c656d20776974682063616c63756c6174696f6e0000000000000000600082015250565b6000613de160188361374f565b9150613dec82613dab565b602082019050919050565b60006020820190508181036000830152613e1081613dd4565b9050919050565b7f4f776e61626c653a206e6577206f776e657220697320746865207a65726f206160008201527f6464726573730000000000000000000000000000000000000000000000000000602082015250565b6000613e7360268361374f565b9150613e7e82613e17565b604082019050919050565b60006020820190508181036000830152613ea281613e66565b9050919050565b7f4f776e61626c653a2063616c6c6572206973206e6f7420746865206f776e6572600082015250565b6000613edf60208361374f565b9150613eea82613ea9565b602082019050919050565b60006020820190508181036000830152613f0e81613ed2565b9050919050565b600081519050919050565b60005b83811015613f3e578082015181840152602081019050613f23565b83811115613f4d576000848401525b50505050565b6000601f19601f8301169050919050565b6000613f6f82613f15565b613f79818561374f565b9350613f89818560208601613f20565b613f9281613f53565b840191505092915050565b60006060820190508181036000830152613fb78186613f64565b9050613fc66020830185613332565b613fd36040830184613332565b94935050505056fea26469706673582212205032d66fa05a3d73a811e2b5d6df826d0a920f02e1f5a013bb4f42abe3b7f78064736f6c63430008090033",
    "linkReferences": {},
    "deployedLinkReferences": {}
}