{
  "_format": "hh-sol-artifact-1",
  "contractName": "Funding",
  "sourceName": "contracts/Funding.sol",
  "abi": [
    {
      "inputs": [
        {
          "internalType": "address",
          "name": "tokenAddress",
          "type": "address"
        },
        {
          "internalType": "address",
          "name": "usdcAddress",
          "type": "address"
        }
      ],
      "stateMutability": "nonpayable",
      "type": "constructor"
    },
    {
      "anonymous": false,
      "inputs": [
        {
          "indexed": false,
          "internalType": "address",
          "name": "owner",
          "type": "address"
        },
        {
          "indexed": false,
          "internalType": "uint256",
          "name": "fundId",
          "type": "uint256"
        }
      ],
      "name": "Cancelled",
      "type": "event"
    },
    {
      "anonymous": false,
      "inputs": [
        {
          "indexed": false,
          "internalType": "address",
          "name": "owner",
          "type": "address"
        },
        {
          "indexed": false,
          "internalType": "uint256",
          "name": "balance",
          "type": "uint256"
        }
      ],
      "name": "Distributed",
      "type": "event"
    },
    {
      "anonymous": false,
      "inputs": [
        {
          "indexed": false,
          "internalType": "address",
          "name": "donator",
          "type": "address"
        },
        {
          "indexed": false,
          "internalType": "uint256",
          "name": "amount",
          "type": "uint256"
        },
        {
          "indexed": false,
          "internalType": "uint256",
          "name": "fundId",
          "type": "uint256"
        }
      ],
      "name": "Donated",
      "type": "event"
    },
    {
      "anonymous": false,
      "inputs": [
        {
          "indexed": false,
          "internalType": "address",
          "name": "owner",
          "type": "address"
        },
        {
          "indexed": false,
          "internalType": "uint256",
          "name": "cap",
          "type": "uint256"
        },
        {
          "indexed": false,
          "internalType": "uint256",
          "name": "id",
          "type": "uint256"
        }
      ],
      "name": "FundCreated",
      "type": "event"
    },
    {
      "anonymous": false,
      "inputs": [
        {
          "indexed": false,
          "internalType": "address",
          "name": "project",
          "type": "address"
        },
        {
          "indexed": false,
          "internalType": "uint256",
          "name": "fee",
          "type": "uint256"
        }
      ],
      "name": "FundingFee",
      "type": "event"
    },
    {
      "anonymous": false,
      "inputs": [
        {
          "indexed": false,
          "internalType": "address",
          "name": "owner",
          "type": "address"
        },
        {
          "indexed": false,
          "internalType": "uint256",
          "name": "cap",
          "type": "uint256"
        },
        {
          "indexed": false,
          "internalType": "uint256",
          "name": "fundId",
          "type": "uint256"
        }
      ],
      "name": "MicroClosed",
      "type": "event"
    },
    {
      "anonymous": false,
      "inputs": [
        {
          "indexed": false,
          "internalType": "address",
          "name": "owner",
          "type": "address"
        },
        {
          "indexed": false,
          "internalType": "uint256",
          "name": "cap",
          "type": "uint256"
        },
        {
          "indexed": false,
          "internalType": "uint256",
          "name": "fundId",
          "type": "uint256"
        }
      ],
      "name": "MicroCreated",
      "type": "event"
    },
    {
      "anonymous": false,
      "inputs": [
        {
          "indexed": false,
          "internalType": "address",
          "name": "owner",
          "type": "address"
        },
        {
          "indexed": false,
          "internalType": "uint256",
          "name": "amount",
          "type": "uint256"
        },
        {
          "indexed": false,
          "internalType": "uint256",
          "name": "fundId",
          "type": "uint256"
        }
      ],
      "name": "MicroDrained",
      "type": "event"
    },
    {
      "anonymous": false,
      "inputs": [
        {
          "indexed": true,
          "internalType": "address",
          "name": "previousOwner",
          "type": "address"
        },
        {
          "indexed": true,
          "internalType": "address",
          "name": "newOwner",
          "type": "address"
        }
      ],
      "name": "OwnershipTransferred",
      "type": "event"
    },
    {
      "anonymous": false,
      "inputs": [
        {
          "indexed": false,
          "internalType": "address",
          "name": "backer",
          "type": "address"
        },
        {
          "indexed": false,
          "internalType": "uint256",
          "name": "amount",
          "type": "uint256"
        },
        {
          "indexed": false,
          "internalType": "uint256",
          "name": "fundId",
          "type": "uint256"
        }
      ],
      "name": "Refunded",
      "type": "event"
    },
    {
      "anonymous": false,
      "inputs": [
        {
          "indexed": false,
          "internalType": "address",
          "name": "microOwner",
          "type": "address"
        },
        {
          "indexed": false,
          "internalType": "uint256",
          "name": "balance",
          "type": "uint256"
        },
        {
          "indexed": false,
          "internalType": "address",
          "name": "fundOwner",
          "type": "address"
        }
      ],
      "name": "Returned",
      "type": "event"
    },
    {
      "anonymous": false,
      "inputs": [
        {
          "indexed": false,
          "internalType": "address",
          "name": "owner",
          "type": "address"
        },
        {
          "indexed": false,
          "internalType": "uint256",
          "name": "cap",
          "type": "uint256"
        },
        {
          "indexed": false,
          "internalType": "uint256",
          "name": "id",
          "type": "uint256"
        }
      ],
      "name": "TokenFundCreated",
      "type": "event"
    },
    {
      "inputs": [],
      "name": "batchDistribute",
      "outputs": [],
      "stateMutability": "nonpayable",
      "type": "function"
    },
    {
      "inputs": [
        {
          "internalType": "uint256",
          "name": "_index",
          "type": "uint256"
        },
        {
          "internalType": "uint256",
          "name": "_amount",
          "type": "uint256"
        }
      ],
      "name": "calcInvolvedMicros",
      "outputs": [
        {
          "internalType": "uint256",
          "name": "",
          "type": "uint256"
        }
      ],
      "stateMutability": "view",
      "type": "function"
    },
    {
      "inputs": [
        {
          "internalType": "uint256",
          "name": "_index",
          "type": "uint256"
        },
        {
          "internalType": "uint256",
          "name": "_amount",
          "type": "uint256"
        }
      ],
      "name": "calcOutcome",
      "outputs": [
        {
          "internalType": "uint256",
          "name": "",
          "type": "uint256"
        }
      ],
      "stateMutability": "view",
      "type": "function"
    },
    {
      "inputs": [
        {
          "internalType": "uint256",
          "name": "_index",
          "type": "uint256"
        }
      ],
      "name": "calcTotalDonations",
      "outputs": [
        {
          "internalType": "uint256",
          "name": "",
          "type": "uint256"
        }
      ],
      "stateMutability": "view",
      "type": "function"
    },
    {
      "inputs": [
        {
          "internalType": "uint256",
          "name": "_id",
          "type": "uint256"
        }
      ],
      "name": "cancelFund",
      "outputs": [],
      "stateMutability": "nonpayable",
      "type": "function"
    },
    {
      "inputs": [
        {
          "internalType": "uint256",
          "name": "_fee",
          "type": "uint256"
        }
      ],
      "name": "changeFee",
      "outputs": [],
      "stateMutability": "nonpayable",
      "type": "function"
    },
    {
      "inputs": [
        {
          "internalType": "uint256",
          "name": "_amountM",
          "type": "uint256"
        },
        {
          "internalType": "uint256",
          "name": "_amountD",
          "type": "uint256"
        },
        {
          "internalType": "uint256",
          "name": "_id",
          "type": "uint256"
        }
      ],
      "name": "contribute",
      "outputs": [],
      "stateMutability": "nonpayable",
      "type": "function"
    },
    {
      "inputs": [
        {
          "internalType": "uint256",
          "name": "_level1",
          "type": "uint256"
        }
      ],
      "name": "createFund",
      "outputs": [],
      "stateMutability": "nonpayable",
      "type": "function"
    },
    {
      "inputs": [
        {
          "internalType": "uint256",
          "name": "_id",
          "type": "uint256"
        }
      ],
      "name": "distribute",
      "outputs": [],
      "stateMutability": "nonpayable",
      "type": "function"
    },
    {
      "inputs": [
        {
          "internalType": "uint256",
          "name": "",
          "type": "uint256"
        }
      ],
      "name": "donations",
      "outputs": [
        {
          "internalType": "uint256",
          "name": "id",
          "type": "uint256"
        },
        {
          "internalType": "uint256",
          "name": "fundId",
          "type": "uint256"
        },
        {
          "internalType": "address",
          "name": "backer",
          "type": "address"
        },
        {
          "internalType": "uint256",
          "name": "amount",
          "type": "uint256"
        },
        {
          "internalType": "uint256",
          "name": "state",
          "type": "uint256"
        }
      ],
      "stateMutability": "view",
      "type": "function"
    },
    {
      "inputs": [],
      "name": "feeAddress",
      "outputs": [
        {
          "internalType": "address",
          "name": "",
          "type": "address"
        }
      ],
      "stateMutability": "view",
      "type": "function"
    },
    {
      "inputs": [
        {
          "internalType": "uint256",
          "name": "",
          "type": "uint256"
        }
      ],
      "name": "funds",
      "outputs": [
        {
          "internalType": "uint256",
          "name": "id",
          "type": "uint256"
        },
        {
          "internalType": "address",
          "name": "owner",
          "type": "address"
        },
        {
          "internalType": "uint256",
          "name": "balance",
          "type": "uint256"
        },
        {
          "internalType": "uint256",
          "name": "deadline",
          "type": "uint256"
        },
        {
          "internalType": "uint256",
          "name": "state",
          "type": "uint256"
        },
        {
          "internalType": "uint256",
          "name": "currency",
          "type": "uint256"
        },
        {
          "internalType": "uint256",
          "name": "level1",
          "type": "uint256"
        },
        {
          "internalType": "uint256",
          "name": "level2",
          "type": "uint256"
        },
        {
          "internalType": "uint256",
          "name": "level3",
          "type": "uint256"
        },
        {
          "internalType": "uint256",
          "name": "level4",
          "type": "uint256"
        },
        {
          "internalType": "uint256",
          "name": "level5",
          "type": "uint256"
        }
      ],
      "stateMutability": "view",
      "type": "function"
    },
    {
      "inputs": [
        {
          "internalType": "uint256",
          "name": "_index",
          "type": "uint256"
        }
      ],
      "name": "getConnectedMicroFunds",
      "outputs": [
        {
          "internalType": "uint256",
          "name": "",
          "type": "uint256"
        }
      ],
      "stateMutability": "view",
      "type": "function"
    },
    {
      "inputs": [
        {
          "internalType": "uint256",
          "name": "_index",
          "type": "uint256"
        }
      ],
      "name": "getFuddDeadline",
      "outputs": [
        {
          "internalType": "uint256",
          "name": "",
          "type": "uint256"
        }
      ],
      "stateMutability": "view",
      "type": "function"
    },
    {
      "inputs": [
        {
          "internalType": "uint256",
          "name": "_index",
          "type": "uint256"
        }
      ],
      "name": "getFundBalance",
      "outputs": [
        {
          "internalType": "uint256",
          "name": "",
          "type": "uint256"
        }
      ],
      "stateMutability": "view",
      "type": "function"
    },
    {
      "inputs": [
        {
          "internalType": "uint256",
          "name": "_index",
          "type": "uint256"
        }
      ],
      "name": "getFundCap",
      "outputs": [
        {
          "internalType": "uint256",
          "name": "",
          "type": "uint256"
        }
      ],
      "stateMutability": "view",
      "type": "function"
    },
    {
      "inputs": [
        {
          "internalType": "uint256",
          "name": "_index",
          "type": "uint256"
        }
      ],
      "name": "getFundInfo",
      "outputs": [
        {
          "internalType": "uint256",
          "name": "state",
          "type": "uint256"
        },
        {
          "internalType": "uint256",
          "name": "max",
          "type": "uint256"
        },
        {
          "internalType": "uint256",
          "name": "balance",
          "type": "uint256"
        }
      ],
      "stateMutability": "view",
      "type": "function"
    },
    {
      "inputs": [
        {
          "internalType": "uint256",
          "name": "_index",
          "type": "uint256"
        }
      ],
      "name": "getMicroFundInfo",
      "outputs": [
        {
          "internalType": "uint256",
          "name": "state",
          "type": "uint256"
        },
        {
          "internalType": "uint256",
          "name": "max",
          "type": "uint256"
        },
        {
          "internalType": "uint256",
          "name": "balance",
          "type": "uint256"
        }
      ],
      "stateMutability": "view",
      "type": "function"
    },
    {
      "inputs": [
        {
          "internalType": "uint256",
          "name": "",
          "type": "uint256"
        }
      ],
      "name": "microFunds",
      "outputs": [
        {
          "internalType": "uint256",
          "name": "microId",
          "type": "uint256"
        },
        {
          "internalType": "address",
          "name": "owner",
          "type": "address"
        },
        {
          "internalType": "uint256",
          "name": "cap",
          "type": "uint256"
        },
        {
          "internalType": "uint256",
          "name": "microBalance",
          "type": "uint256"
        },
        {
          "internalType": "uint256",
          "name": "fundId",
          "type": "uint256"
        },
        {
          "internalType": "uint256",
          "name": "state",
          "type": "uint256"
        }
      ],
      "stateMutability": "view",
      "type": "function"
    },
    {
      "inputs": [],
      "name": "minAmount",
      "outputs": [
        {
          "internalType": "uint256",
          "name": "",
          "type": "uint256"
        }
      ],
      "stateMutability": "view",
      "type": "function"
    },
    {
      "inputs": [],
      "name": "owner",
      "outputs": [
        {
          "internalType": "address",
          "name": "",
          "type": "address"
        }
      ],
      "stateMutability": "view",
      "type": "function"
    },
    {
      "inputs": [],
      "name": "platformFee",
      "outputs": [
        {
          "internalType": "uint256",
          "name": "",
          "type": "uint256"
        }
      ],
      "stateMutability": "view",
      "type": "function"
    },
    {
      "inputs": [],
      "name": "renounceOwnership",
      "outputs": [],
      "stateMutability": "nonpayable",
      "type": "function"
    },
    {
      "inputs": [
        {
          "internalType": "uint256",
          "name": "_min",
          "type": "uint256"
        }
      ],
      "name": "setMinimum",
      "outputs": [],
      "stateMutability": "nonpayable",
      "type": "function"
    },
    {
      "inputs": [],
      "name": "token",
      "outputs": [
        {
          "internalType": "contract IERC20",
          "name": "",
          "type": "address"
        }
      ],
      "stateMutability": "view",
      "type": "function"
    },
    {
      "inputs": [
        {
          "internalType": "uint256",
          "name": "",
          "type": "uint256"
        }
      ],
      "name": "tokenFunds",
      "outputs": [
        {
          "internalType": "uint256",
          "name": "id",
          "type": "uint256"
        },
        {
          "internalType": "address",
          "name": "owner",
          "type": "address"
        },
        {
          "internalType": "uint256",
          "name": "balance",
          "type": "uint256"
        },
        {
          "internalType": "uint256",
          "name": "deadline",
          "type": "uint256"
        },
        {
          "internalType": "uint256",
          "name": "state",
          "type": "uint256"
        },
        {
          "internalType": "address",
          "name": "tokenAddress",
          "type": "address"
        },
        {
          "internalType": "uint256",
          "name": "reward",
          "type": "uint256"
        },
        {
          "internalType": "uint256",
          "name": "level1",
          "type": "uint256"
        }
      ],
      "stateMutability": "view",
      "type": "function"
    },
    {
      "inputs": [
        {
          "internalType": "address",
          "name": "newOwner",
          "type": "address"
        }
      ],
      "name": "transferOwnership",
      "outputs": [],
      "stateMutability": "nonpayable",
      "type": "function"
    },
    {
      "inputs": [],
      "name": "usdc",
      "outputs": [
        {
          "internalType": "contract IERC20",
          "name": "",
          "type": "address"
        }
      ],
      "stateMutability": "view",
      "type": "function"
    }
  ],
  "bytecode": "0x608060405273c21223249ca28397b4b6541dffaecc539bff0c59600460006101000a81548173ffffffffffffffffffffffffffffffffffffffff021916908373ffffffffffffffffffffffffffffffffffffffff160217905550600160055560016006553480156200007057600080fd5b5060405162004d8038038062004d8083398181016040528101906200009691906200027d565b620000b6620000aa6200014760201b60201c565b6200014f60201b60201c565b6001808190555081600260006101000a81548173ffffffffffffffffffffffffffffffffffffffff021916908373ffffffffffffffffffffffffffffffffffffffff16021790555080600360006101000a81548173ffffffffffffffffffffffffffffffffffffffff021916908373ffffffffffffffffffffffffffffffffffffffff1602179055505050620002c4565b600033905090565b60008060009054906101000a900473ffffffffffffffffffffffffffffffffffffffff169050816000806101000a81548173ffffffffffffffffffffffffffffffffffffffff021916908373ffffffffffffffffffffffffffffffffffffffff1602179055508173ffffffffffffffffffffffffffffffffffffffff168173ffffffffffffffffffffffffffffffffffffffff167f8be0079c531659141344cd1fd0a4f28419497f9722a3daafe3b4186f6b6457e060405160405180910390a35050565b600080fd5b600073ffffffffffffffffffffffffffffffffffffffff82169050919050565b6000620002458262000218565b9050919050565b620002578162000238565b81146200026357600080fd5b50565b60008151905062000277816200024c565b92915050565b6000806040838503121562000297576200029662000213565b5b6000620002a78582860162000266565b9250506020620002ba8582860162000266565b9150509250929050565b614aac80620002d46000396000f3fe608060405234801561001057600080fd5b50600436106101c45760003560e01c80637dc66159116100f9578063b7fa105611610097578063f2fde38b11610071578063f2fde38b1461056b578063f8626af814610587578063fc0c546a146105bb578063ff8c55dd146105d9576101c4565b8063b7fa1056146104ed578063be7aec531461051f578063e48105241461054f576101c4565b806396413b62116100d357806396413b621461043f5780639b2cb5d81461046f578063a4f10f0e1461048d578063b318c837146104bd576101c4565b80637dc66159146103d55780638da5cb5b1461040557806391c05b0b14610423576101c4565b806342fa071311610166578063715018a611610140578063715018a614610345578063766e97111461034f5780637b8e88951461037f5780637d98adaf146103b9576101c4565b806342fa0713146102dd5780636266d5fb146102f95780636a1db1bf14610329576101c4565b80633209e9e6116101a25780633209e9e6146102535780633e413bee1461026f5780633ece10421461028d57806341275358146102bf576101c4565b806316055fa8146101c9578063252a9996146101fe57806326232a2e14610235575b600080fd5b6101e360048036038101906101de9190613d9c565b6105e3565b6040516101f596959493929190613e19565b60405180910390f35b61021860048036038101906102139190613d9c565b61064f565b60405161022c989796959493929190613e7a565b60405180910390f35b61023d6106e7565b60405161024a9190613ef8565b60405180910390f35b61026d60048036038101906102689190613d9c565b6106ed565b005b6102776106ff565b6040516102849190613f72565b60405180910390f35b6102a760048036038101906102a29190613d9c565b610725565b6040516102b693929190613f8d565b60405180910390f35b6102c761076c565b6040516102d49190613fc4565b60405180910390f35b6102f760048036038101906102f29190613d9c565b610792565b005b610313600480360381019061030e9190613d9c565b610a26565b6040516103209190613ef8565b60405180910390f35b610343600480360381019061033e9190613d9c565b610a55565b005b61034d610a67565b005b61036960048036038101906103649190613d9c565b610a7b565b6040516103769190613ef8565b60405180910390f35b61039960048036038101906103949190613d9c565b610aeb565b6040516103b09b9a99989796959493929190613fdf565b60405180910390f35b6103d360048036038101906103ce919061408a565b610b75565b005b6103ef60048036038101906103ea9190613d9c565b6111fe565b6040516103fc9190613ef8565b60405180910390f35b61040d61122d565b60405161041a9190613fc4565b60405180910390f35b61043d60048036038101906104389190613d9c565b611256565b005b61045960048036038101906104549190613d9c565b612569565b6040516104669190613ef8565b60405180910390f35b610477612598565b6040516104849190613ef8565b60405180910390f35b6104a760048036038101906104a29190613d9c565b61259e565b6040516104b49190613ef8565b60405180910390f35b6104d760048036038101906104d291906140dd565b61260e565b6040516104e49190613ef8565b60405180910390f35b61050760048036038101906105029190613d9c565b61271f565b60405161051693929190613f8d565b60405180910390f35b610539600480360381019061053491906140dd565b612766565b6040516105469190613ef8565b60405180910390f35b61056960048036038101906105649190613d9c565b612869565b005b61058560048036038101906105809190614149565b61366b565b005b6105a1600480360381019061059c9190613d9c565b6136ef565b6040516105b2959493929190614176565b60405180910390f35b6105c3613755565b6040516105d09190613f72565b60405180910390f35b6105e161377b565b005b600981815481106105f357600080fd5b90600052602060002090600602016000915090508060000154908060010160009054906101000a900473ffffffffffffffffffffffffffffffffffffffff16908060020154908060030154908060040154908060050154905086565b6007818154811061065f57600080fd5b90600052602060002090600802016000915090508060000154908060010160009054906101000a900473ffffffffffffffffffffffffffffffffffffffff16908060020154908060030154908060040154908060050160009054906101000a900473ffffffffffffffffffffffffffffffffffffffff16908060060154908060070154905088565b60065481565b6106f56138ef565b8060058190555050565b600360009054906101000a900473ffffffffffffffffffffffffffffffffffffffff1681565b6000806000806008858154811061073f5761073e6141c9565b5b90600052602060002090600b02019050806004015481600a01548260020154935093509350509193909250565b600460009054906101000a900473ffffffffffffffffffffffffffffffffffffffff1681565b600062278d00426107a39190614227565b9050600073ffffffffffffffffffffffffffffffffffffffff163373ffffffffffffffffffffffffffffffffffffffff161415610815576040517f08c379a000000000000000000000000000000000000000000000000000000000815260040161080c906142da565b60405180910390fd5b60008211610858576040517f08c379a000000000000000000000000000000000000000000000000000000000815260040161084f90614346565b60405180910390fd5b60055482101561089d576040517f08c379a0000000000000000000000000000000000000000000000000000000008152600401610894906143d8565b60405180910390fd5b600860405180610160016040528060088054905081526020013373ffffffffffffffffffffffffffffffffffffffff1681526020016000815260200183815260200160018152602001600081526020018481526020018481526020018481526020018481526020018481525090806001815401808255809150506001900390600052602060002090600b02016000909190919091506000820151816000015560208201518160010160006101000a81548173ffffffffffffffffffffffffffffffffffffffff021916908373ffffffffffffffffffffffffffffffffffffffff16021790555060408201518160020155606082015181600301556080820151816004015560a0820151816005015560c0820151816006015560e082015181600701556101008201518160080155610120820151816009015561014082015181600a015550507ff18ce1b70b1a4044491b54196c83d95e67aae09483ce0d2e1c2a8189faca76443383600880549050604051610a1a939291906143f8565b60405180910390a15050565b600060088281548110610a3c57610a3b6141c9565b5b90600052602060002090600b0201600601549050919050565b610a5d6138ef565b8060068190555050565b610a6f6138ef565b610a79600061396d565b565b6000806000905060005b600a80549050811015610ae15783600a8281548110610aa757610aa66141c9565b5b9060005260206000209060050201600101541415610ace578180610aca9061442f565b9250505b8080610ad99061442f565b915050610a85565b5080915050919050565b60088181548110610afb57600080fd5b90600052602060002090600b02016000915090508060000154908060010160009054906101000a900473ffffffffffffffffffffffffffffffffffffffff169080600201549080600301549080600401549080600501549080600601549080600701549080600801549080600901549080600a015490508b565b8060088181548110610b8a57610b896141c9565b5b90600052602060002090600b0201600301544210610bdd576040517f08c379a0000000000000000000000000000000000000000000000000000000008152600401610bd4906144ea565b60405180910390fd5b600073ffffffffffffffffffffffffffffffffffffffff163373ffffffffffffffffffffffffffffffffffffffff161415610c4d576040517f08c379a0000000000000000000000000000000000000000000000000000000008152600401610c44906142da565b60405180910390fd5b6000841015610c91576040517f08c379a0000000000000000000000000000000000000000000000000000000008152600401610c8890614346565b60405180910390fd5b6000831015610cd5576040517f08c379a0000000000000000000000000000000000000000000000000000000008152600401610ccc90614346565b60405180910390fd5b600160088381548110610ceb57610cea6141c9565b5b90600052602060002090600b02016004015414610d3d576040517f08c379a0000000000000000000000000000000000000000000000000000000008152600401610d3490614556565b60405180910390fd5b600060088381548110610d5357610d526141c9565b5b90600052602060002090600b0201600501541415610e2d57600260009054906101000a900473ffffffffffffffffffffffffffffffffffffffff1673ffffffffffffffffffffffffffffffffffffffff166323b872dd33308787610db79190614227565b6040518463ffffffff1660e01b8152600401610dd593929190614576565b602060405180830381600087803b158015610def57600080fd5b505af1158015610e03573d6000803e3d6000fd5b505050506040513d601f19601f82011682018060405250810190610e2791906145e5565b50610f59565b600160088381548110610e4357610e426141c9565b5b90600052602060002090600b0201600501541415610f1d57600360009054906101000a900473ffffffffffffffffffffffffffffffffffffffff1673ffffffffffffffffffffffffffffffffffffffff166323b872dd33308787610ea79190614227565b6040518463ffffffff1660e01b8152600401610ec593929190614576565b602060405180830381600087803b158015610edf57600080fd5b505af1158015610ef3573d6000803e3d6000fd5b505050506040513d601f19601f82011682018060405250810190610f1791906145e5565b50610f58565b6040517f08c379a0000000000000000000000000000000000000000000000000000000008152600401610f4f9061465e565b60405180910390fd5b5b60008311156110c3578260088381548110610f7757610f766141c9565b5b90600052602060002090600b02016002016000828254610f979190614227565b92505081905550600a6040518060a00160405280600a8054905081526020018481526020013373ffffffffffffffffffffffffffffffffffffffff16815260200185815260200160008152509080600181540180825580915050600190039060005260206000209060050201600090919091909150600082015181600001556020820151816001015560408201518160020160006101000a81548173ffffffffffffffffffffffffffffffffffffffff021916908373ffffffffffffffffffffffffffffffffffffffff160217905550606082015181600301556080820151816004015550507f4928895ba6723e8e27b15f32e4c3054a1b6c7f8c03f133558d6fa42b3928d14c3384846040516110b0939291906143f8565b60405180910390a16110c28284613a31565b5b60008411156111f85760096040518060c0016040528060098054905081526020013373ffffffffffffffffffffffffffffffffffffffff16815260200186815260200160008152602001848152602001600181525090806001815401808255809150506001900390600052602060002090600602016000909190919091506000820151816000015560208201518160010160006101000a81548173ffffffffffffffffffffffffffffffffffffffff021916908373ffffffffffffffffffffffffffffffffffffffff16021790555060408201518160020155606082015181600301556080820151816004015560a0820151816005015550507ff063c0df9b2896b63568ae0044926eceb22a0eb7a0d0407b01d58c9ef81de6d43385846040516111ef939291906143f8565b60405180910390a15b50505050565b600060088281548110611214576112136141c9565b5b90600052602060002090600b0201600301549050919050565b60008060009054906101000a900473ffffffffffffffffffffffffffffffffffffffff16905090565b61125e6138ef565b600260015414156112a4576040517f08c379a000000000000000000000000000000000000000000000000000000000815260040161129b906146ca565b60405180910390fd5b60026001819055506001600882815481106112c2576112c16141c9565b5b90600052602060002090600b02016004015414611314576040517f08c379a000000000000000000000000000000000000000000000000000000000815260040161130b90614556565b60405180910390fd5b60006008828154811061132a576113296141c9565b5b90600052602060002090600b0201600501541415611c865760088181548110611356576113556141c9565b5b90600052602060002090600b020160020154600260009054906101000a900473ffffffffffffffffffffffffffffffffffffffff1673ffffffffffffffffffffffffffffffffffffffff166370a08231306040518263ffffffff1660e01b81526004016113c39190613fc4565b60206040518083038186803b1580156113db57600080fd5b505afa1580156113ef573d6000803e3d6000fd5b505050506040513d601f19601f8201168201806040525081019061141391906146ff565b1015611454576040517f08c379a000000000000000000000000000000000000000000000000000000000815260040161144b9061479e565b60405180910390fd5b600260009054906101000a900473ffffffffffffffffffffffffffffffffffffffff1673ffffffffffffffffffffffffffffffffffffffff1663095ea7b330600884815481106114a7576114a66141c9565b5b90600052602060002090600b0201600201546040518363ffffffff1660e01b81526004016114d69291906147be565b602060405180830381600087803b1580156114f057600080fd5b505af1158015611504573d6000803e3d6000fd5b505050506040513d601f19601f8201168201806040525081019061152891906145e5565b5060006064600160088481548110611543576115426141c9565b5b90600052602060002090600b02016002015461155f91906147e7565b6115699190614870565b905060008160088481548110611582576115816141c9565b5b90600052602060002090600b02016002015461159e91906148a1565b9050600260009054906101000a900473ffffffffffffffffffffffffffffffffffffffff1673ffffffffffffffffffffffffffffffffffffffff166323b872dd30600460009054906101000a900473ffffffffffffffffffffffffffffffffffffffff16856040518463ffffffff1660e01b815260040161162193929190614576565b602060405180830381600087803b15801561163b57600080fd5b505af115801561164f573d6000803e3d6000fd5b505050506040513d601f19601f8201168201806040525081019061167391906145e5565b507fbd7be181889421a250b191cccf6016a1956adc1f1f75af42434f320ad4fd4e01600884815481106116a9576116a86141c9565b5b90600052602060002090600b020160010160009054906101000a900473ffffffffffffffffffffffffffffffffffffffff16836040516116ea9291906147be565b60405180910390a1600260009054906101000a900473ffffffffffffffffffffffffffffffffffffffff1673ffffffffffffffffffffffffffffffffffffffff166323b872dd3060088681548110611745576117446141c9565b5b90600052602060002090600b020160010160009054906101000a900473ffffffffffffffffffffffffffffffffffffffff16846040518463ffffffff1660e01b815260040161179693929190614576565b602060405180830381600087803b1580156117b057600080fd5b505af11580156117c4573d6000803e3d6000fd5b505050506040513d601f19601f820116820180604052508101906117e891906145e5565b506002600884815481106117ff576117fe6141c9565b5b90600052602060002090600b0201600401819055507fb649c98f58055c520df0dcb5709eff2e931217ff2fb1e21376130d31bbb1c0af60088481548110611849576118486141c9565b5b90600052602060002090600b020160010160009054906101000a900473ffffffffffffffffffffffffffffffffffffffff166008858154811061188f5761188e6141c9565b5b90600052602060002090600b0201600201546040516118af9291906147be565b60405180910390a160005b600980549050811015611c7e5783600982815481106118dc576118db6141c9565b5b906000526020600020906006020160040154148015611920575060016009828154811061190c5761190b6141c9565b5b906000526020600020906006020160050154145b15611c6b5760098181548110611939576119386141c9565b5b9060005260206000209060060201600301546009828154811061195f5761195e6141c9565b5b9060005260206000209060060201600201541115611c3f5760006009828154811061198d5761198c6141c9565b5b906000526020600020906006020160030154600983815481106119b3576119b26141c9565b5b9060005260206000209060060201600201546119cf91906148a1565b9050600260009054906101000a900473ffffffffffffffffffffffffffffffffffffffff1673ffffffffffffffffffffffffffffffffffffffff1663095ea7b330836040518363ffffffff1660e01b8152600401611a2e9291906147be565b602060405180830381600087803b158015611a4857600080fd5b505af1158015611a5c573d6000803e3d6000fd5b505050506040513d601f19601f82011682018060405250810190611a8091906145e5565b50600260009054906101000a900473ffffffffffffffffffffffffffffffffffffffff1673ffffffffffffffffffffffffffffffffffffffff166323b872dd3060098881548110611ad457611ad36141c9565b5b906000526020600020906006020160010160009054906101000a900473ffffffffffffffffffffffffffffffffffffffff16846040518463ffffffff1660e01b8152600401611b2593929190614576565b602060405180830381600087803b158015611b3f57600080fd5b505af1158015611b53573d6000803e3d6000fd5b505050506040513d601f19601f82011682018060405250810190611b7791906145e5565b507f98c105e3bc1ca4c7a99cdea9cd2e2c7a0fbf623404262d3dfd0a152545bd25ad60098381548110611bad57611bac6141c9565b5b906000526020600020906006020160010160009054906101000a900473ffffffffffffffffffffffffffffffffffffffff168260088881548110611bf457611bf36141c9565b5b90600052602060002090600b020160010160009054906101000a900473ffffffffffffffffffffffffffffffffffffffff16604051611c35939291906148d5565b60405180910390a1505b600260098281548110611c5557611c546141c9565b5b9060005260206000209060060201600501819055505b8080611c769061442f565b9150506118ba565b50505061255f565b600160088281548110611c9c57611c9b6141c9565b5b90600052602060002090600b02016005015414156125235760088181548110611cc857611cc76141c9565b5b90600052602060002090600b020160020154600360009054906101000a900473ffffffffffffffffffffffffffffffffffffffff1673ffffffffffffffffffffffffffffffffffffffff166370a08231306040518263ffffffff1660e01b8152600401611d359190613fc4565b60206040518083038186803b158015611d4d57600080fd5b505afa158015611d61573d6000803e3d6000fd5b505050506040513d601f19601f82011682018060405250810190611d8591906146ff565b1015611dc6576040517f08c379a0000000000000000000000000000000000000000000000000000000008152600401611dbd9061479e565b60405180910390fd5b60006064600160088481548110611de057611ddf6141c9565b5b90600052602060002090600b020160020154611dfc91906147e7565b611e069190614870565b905060008160088481548110611e1f57611e1e6141c9565b5b90600052602060002090600b020160020154611e3b91906148a1565b9050600360009054906101000a900473ffffffffffffffffffffffffffffffffffffffff1673ffffffffffffffffffffffffffffffffffffffff166323b872dd30600460009054906101000a900473ffffffffffffffffffffffffffffffffffffffff16856040518463ffffffff1660e01b8152600401611ebe93929190614576565b602060405180830381600087803b158015611ed857600080fd5b505af1158015611eec573d6000803e3d6000fd5b505050506040513d601f19601f82011682018060405250810190611f1091906145e5565b507fbd7be181889421a250b191cccf6016a1956adc1f1f75af42434f320ad4fd4e0160088481548110611f4657611f456141c9565b5b90600052602060002090600b020160010160009054906101000a900473ffffffffffffffffffffffffffffffffffffffff1683604051611f879291906147be565b60405180910390a1600360009054906101000a900473ffffffffffffffffffffffffffffffffffffffff1673ffffffffffffffffffffffffffffffffffffffff166323b872dd3060088681548110611fe257611fe16141c9565b5b90600052602060002090600b020160010160009054906101000a900473ffffffffffffffffffffffffffffffffffffffff16846040518463ffffffff1660e01b815260040161203393929190614576565b602060405180830381600087803b15801561204d57600080fd5b505af1158015612061573d6000803e3d6000fd5b505050506040513d601f19601f8201168201806040525081019061208591906145e5565b5060026008848154811061209c5761209b6141c9565b5b90600052602060002090600b0201600401819055507fb649c98f58055c520df0dcb5709eff2e931217ff2fb1e21376130d31bbb1c0af600884815481106120e6576120e56141c9565b5b90600052602060002090600b020160010160009054906101000a900473ffffffffffffffffffffffffffffffffffffffff166008858154811061212c5761212b6141c9565b5b90600052602060002090600b02016002015460405161214c9291906147be565b60405180910390a160005b60098054905081101561251b578360098281548110612179576121786141c9565b5b9060005260206000209060060201600401541480156121bd57506001600982815481106121a9576121a86141c9565b5b906000526020600020906006020160050154145b1561250857600981815481106121d6576121d56141c9565b5b906000526020600020906006020160030154600982815481106121fc576121fb6141c9565b5b90600052602060002090600602016002015411156124dc5760006009828154811061222a576122296141c9565b5b906000526020600020906006020160030154600983815481106122505761224f6141c9565b5b90600052602060002090600602016002015461226c91906148a1565b9050600360009054906101000a900473ffffffffffffffffffffffffffffffffffffffff1673ffffffffffffffffffffffffffffffffffffffff1663095ea7b330836040518363ffffffff1660e01b81526004016122cb9291906147be565b602060405180830381600087803b1580156122e557600080fd5b505af11580156122f9573d6000803e3d6000fd5b505050506040513d601f19601f8201168201806040525081019061231d91906145e5565b50600360009054906101000a900473ffffffffffffffffffffffffffffffffffffffff1673ffffffffffffffffffffffffffffffffffffffff166323b872dd3060098881548110612371576123706141c9565b5b906000526020600020906006020160010160009054906101000a900473ffffffffffffffffffffffffffffffffffffffff16846040518463ffffffff1660e01b81526004016123c293929190614576565b602060405180830381600087803b1580156123dc57600080fd5b505af11580156123f0573d6000803e3d6000fd5b505050506040513d601f19601f8201168201806040525081019061241491906145e5565b507f98c105e3bc1ca4c7a99cdea9cd2e2c7a0fbf623404262d3dfd0a152545bd25ad6009838154811061244a576124496141c9565b5b906000526020600020906006020160010160009054906101000a900473ffffffffffffffffffffffffffffffffffffffff168260088881548110612491576124906141c9565b5b90600052602060002090600b020160010160009054906101000a900473ffffffffffffffffffffffffffffffffffffffff166040516124d2939291906148d5565b60405180910390a1505b6002600982815481106124f2576124f16141c9565b5b9060005260206000209060060201600501819055505b80806125139061442f565b915050612157565b50505061255e565b6040517f08c379a00000000000000000000000000000000000000000000000000000000081526004016125559061465e565b60405180910390fd5b5b6001808190555050565b60006008828154811061257f5761257e6141c9565b5b90600052602060002090600b0201600201549050919050565b60055481565b6000806000905060005b6009805490508110156126045783600982815481106125ca576125c96141c9565b5b90600052602060002090600602016004015414156125f15781806125ed9061442f565b9250505b80806125fc9061442f565b9150506125a8565b5080915050919050565b6000806000905082816126219190614227565b905060005b600980549050811015612714578460098281548110612648576126476141c9565b5b90600052602060002090600602016004015414801561268c5750600160098281548110612678576126776141c9565b5b906000526020600020906006020160050154145b80156126ed575083600982815481106126a8576126a76141c9565b5b906000526020600020906006020160030154600983815481106126ce576126cd6141c9565b5b9060005260206000209060060201600201546126ea91906148a1565b10155b156127015783826126fe9190614227565b91505b808061270c9061442f565b915050612626565b508091505092915050565b60008060008060098581548110612739576127386141c9565b5b90600052602060002090600602019050806005015481600301548260020154935093509350509193909250565b6000806000905060005b60098054905081101561285e578460098281548110612792576127916141c9565b5b9060005260206000209060060201600401541480156127d657506001600982815481106127c2576127c16141c9565b5b906000526020600020906006020160050154145b8015612837575083600982815481106127f2576127f16141c9565b5b90600052602060002090600602016003015460098381548110612818576128176141c9565b5b90600052602060002090600602016002015461283491906148a1565b10155b1561284b5781806128479061442f565b9250505b80806128569061442f565b915050612770565b508091505092915050565b600260015414156128af576040517f08c379a00000000000000000000000000000000000000000000000000000000081526004016128a6906146ca565b60405180910390fd5b60026001819055506001600882815481106128cd576128cc6141c9565b5b90600052602060002090600b0201600401541461291f576040517f08c379a000000000000000000000000000000000000000000000000000000000815260040161291690614556565b60405180910390fd5b60088181548110612933576129326141c9565b5b90600052602060002090600b020160020154600260009054906101000a900473ffffffffffffffffffffffffffffffffffffffff1673ffffffffffffffffffffffffffffffffffffffff166370a08231306040518263ffffffff1660e01b81526004016129a09190613fc4565b60206040518083038186803b1580156129b857600080fd5b505afa1580156129cc573d6000803e3d6000fd5b505050506040513d601f19601f820116820180604052508101906129f091906146ff565b1015612a31576040517f08c379a0000000000000000000000000000000000000000000000000000000008152600401612a289061479e565b60405180910390fd5b60098181548110612a4557612a446141c9565b5b906000526020600020906006020160010160009054906101000a900473ffffffffffffffffffffffffffffffffffffffff1673ffffffffffffffffffffffffffffffffffffffff163373ffffffffffffffffffffffffffffffffffffffff161480612adb57503073ffffffffffffffffffffffffffffffffffffffff163373ffffffffffffffffffffffffffffffffffffffff16145b156136615760005b600980549050811015612ebb578160098281548110612b0557612b046141c9565b5b906000526020600020906006020160040154148015612b495750600160098281548110612b3557612b346141c9565b5b906000526020600020906006020160050154145b15612ea85760098181548110612b6257612b616141c9565b5b90600052602060002090600602016003015460098281548110612b8857612b876141c9565b5b9060005260206000209060060201600201541115612e7c57600260009054906101000a900473ffffffffffffffffffffffffffffffffffffffff1673ffffffffffffffffffffffffffffffffffffffff1663095ea7b33060098581548110612bf357612bf26141c9565b5b9060005260206000209060060201600201546040518363ffffffff1660e01b8152600401612c229291906147be565b602060405180830381600087803b158015612c3c57600080fd5b505af1158015612c50573d6000803e3d6000fd5b505050506040513d601f19601f82011682018060405250810190612c7491906145e5565b50600260009054906101000a900473ffffffffffffffffffffffffffffffffffffffff1673ffffffffffffffffffffffffffffffffffffffff166323b872dd3060098581548110612cc857612cc76141c9565b5b906000526020600020906006020160010160009054906101000a900473ffffffffffffffffffffffffffffffffffffffff1660098681548110612d0e57612d0d6141c9565b5b9060005260206000209060060201600201546040518463ffffffff1660e01b8152600401612d3e93929190614576565b602060405180830381600087803b158015612d5857600080fd5b505af1158015612d6c573d6000803e3d6000fd5b505050506040513d601f19601f82011682018060405250810190612d9091906145e5565b507f98c105e3bc1ca4c7a99cdea9cd2e2c7a0fbf623404262d3dfd0a152545bd25ad60098281548110612dc657612dc56141c9565b5b906000526020600020906006020160010160009054906101000a900473ffffffffffffffffffffffffffffffffffffffff1660098481548110612e0c57612e0b6141c9565b5b90600052602060002090600602016002015460088581548110612e3257612e316141c9565b5b90600052602060002090600b020160010160009054906101000a900473ffffffffffffffffffffffffffffffffffffffff16604051612e73939291906148d5565b60405180910390a15b600260098281548110612e9257612e916141c9565b5b9060005260206000209060060201600501819055505b8080612eb39061442f565b915050612ae3565b5060005b600a805490508110156135235781600a8281548110612ee157612ee06141c9565b5b906000526020600020906005020160010154148015612f2557506000600a8281548110612f1157612f106141c9565b5b906000526020600020906005020160040154145b1561351057600060088381548110612f4057612f3f6141c9565b5b90600052602060002090600b020160050154141561321e57600260009054906101000a900473ffffffffffffffffffffffffffffffffffffffff1673ffffffffffffffffffffffffffffffffffffffff1663095ea7b330600a8481548110612fab57612faa6141c9565b5b9060005260206000209060050201600301546040518363ffffffff1660e01b8152600401612fda9291906147be565b602060405180830381600087803b158015612ff457600080fd5b505af1158015613008573d6000803e3d6000fd5b505050506040513d601f19601f8201168201806040525081019061302c91906145e5565b50600260009054906101000a900473ffffffffffffffffffffffffffffffffffffffff1673ffffffffffffffffffffffffffffffffffffffff166323b872dd30600a85815481106130805761307f6141c9565b5b906000526020600020906005020160020160009054906101000a900473ffffffffffffffffffffffffffffffffffffffff16600a86815481106130c6576130c56141c9565b5b9060005260206000209060050201600301546040518463ffffffff1660e01b81526004016130f693929190614576565b602060405180830381600087803b15801561311057600080fd5b505af1158015613124573d6000803e3d6000fd5b505050506040513d601f19601f8201168201806040525081019061314891906145e5565b506002600a828154811061315f5761315e6141c9565b5b9060005260206000209060050201600401819055507f2dc8e290002f06fc0085bbca9dfb8b415cf4d1178950c72ff9ee8f4d8878ee66600a83815481106131a9576131a86141c9565b5b906000526020600020906005020160020160009054906101000a900473ffffffffffffffffffffffffffffffffffffffff16600a84815481106131ef576131ee6141c9565b5b90600052602060002090600502016003015484604051613211939291906143f8565b60405180910390a161350f565b600160088381548110613234576132336141c9565b5b90600052602060002090600b020160050154141561350e57600360009054906101000a900473ffffffffffffffffffffffffffffffffffffffff1673ffffffffffffffffffffffffffffffffffffffff1663095ea7b330600a848154811061329f5761329e6141c9565b5b9060005260206000209060050201600301546040518363ffffffff1660e01b81526004016132ce9291906147be565b602060405180830381600087803b1580156132e857600080fd5b505af11580156132fc573d6000803e3d6000fd5b505050506040513d601f19601f8201168201806040525081019061332091906145e5565b50600360009054906101000a900473ffffffffffffffffffffffffffffffffffffffff1673ffffffffffffffffffffffffffffffffffffffff166323b872dd30600a8581548110613374576133736141c9565b5b906000526020600020906005020160020160009054906101000a900473ffffffffffffffffffffffffffffffffffffffff16600a86815481106133ba576133b96141c9565b5b9060005260206000209060050201600301546040518463ffffffff1660e01b81526004016133ea93929190614576565b602060405180830381600087803b15801561340457600080fd5b505af1158015613418573d6000803e3d6000fd5b505050506040513d601f19601f8201168201806040525081019061343c91906145e5565b506002600a8281548110613453576134526141c9565b5b9060005260206000209060050201600401819055507f2dc8e290002f06fc0085bbca9dfb8b415cf4d1178950c72ff9ee8f4d8878ee66600a838154811061349d5761349c6141c9565b5b906000526020600020906005020160020160009054906101000a900473ffffffffffffffffffffffffffffffffffffffff16600a84815481106134e3576134e26141c9565b5b90600052602060002090600502016003015484604051613505939291906143f8565b60405180910390a15b5b5b808061351b9061442f565b915050612ebf565b5060006008828154811061353a576135396141c9565b5b90600052602060002090600b020160020154141561362557600260088281548110613568576135676141c9565b5b90600052602060002090600b0201600401819055507f36ea5cd5608625e789af0282eecdb4eae1cb7c1cf6d0ec3f9a84f35be850260b600882815481106135b2576135b16141c9565b5b90600052602060002090600b020160010160009054906101000a900473ffffffffffffffffffffffffffffffffffffffff16600883815481106135f8576135f76141c9565b5b90600052602060002090600b0201600001546040516136189291906147be565b60405180910390a1613660565b6040517f08c379a000000000000000000000000000000000000000000000000000000000815260040161365790614958565b60405180910390fd5b5b6001808190555050565b6136736138ef565b600073ffffffffffffffffffffffffffffffffffffffff168173ffffffffffffffffffffffffffffffffffffffff1614156136e3576040517f08c379a00000000000000000000000000000000000000000000000000000000081526004016136da906149ea565b60405180910390fd5b6136ec8161396d565b50565b600a81815481106136ff57600080fd5b90600052602060002090600502016000915090508060000154908060010154908060020160009054906101000a900473ffffffffffffffffffffffffffffffffffffffff16908060030154908060040154905085565b600260009054906101000a900473ffffffffffffffffffffffffffffffffffffffff1681565b6137836138ef565b600260015414156137c9576040517f08c379a00000000000000000000000000000000000000000000000000000000081526004016137c0906146ca565b60405180910390fd5b600260018190555060005b6008805490508110156138e557600881815481106137f5576137f46141c9565b5b90600052602060002090600b020160030154421015613813576138d2565b600160088281548110613829576138286141c9565b5b90600052602060002090600b020160040154148015613892575060088181548110613857576138566141c9565b5b90600052602060002090600b0201600601546008828154811061387d5761387c6141c9565b5b90600052602060002090600b02016002015410155b80156138c25750600881815481106138ad576138ac6141c9565b5b90600052602060002090600b02016003015442115b156138d1576138d081611256565b5b5b80806138dd9061442f565b9150506137d4565b5060018081905550565b6138f7613d59565b73ffffffffffffffffffffffffffffffffffffffff1661391561122d565b73ffffffffffffffffffffffffffffffffffffffff161461396b576040517f08c379a000000000000000000000000000000000000000000000000000000000815260040161396290614a56565b60405180910390fd5b565b60008060009054906101000a900473ffffffffffffffffffffffffffffffffffffffff169050816000806101000a81548173ffffffffffffffffffffffffffffffffffffffff021916908373ffffffffffffffffffffffffffffffffffffffff1602179055508173ffffffffffffffffffffffffffffffffffffffff168173ffffffffffffffffffffffffffffffffffffffff167f8be0079c531659141344cd1fd0a4f28419497f9722a3daafe3b4186f6b6457e060405160405180910390a35050565b60005b600980549050811015613d54578160098281548110613a5657613a556141c9565b5b90600052602060002090600602016003015460098381548110613a7c57613a7b6141c9565b5b906000526020600020906006020160020154613a9891906148a1565b10158015613aca57508260098281548110613ab657613ab56141c9565b5b906000526020600020906006020160040154145b8015613afb5750600160098281548110613ae757613ae66141c9565b5b906000526020600020906006020160050154145b15613d41578160098281548110613b1557613b146141c9565b5b90600052602060002090600602016003016000828254613b359190614227565b925050819055508160088481548110613b5157613b506141c9565b5b90600052602060002090600b02016002016000828254613b719190614227565b9250508190555060098181548110613b8c57613b8b6141c9565b5b90600052602060002090600602016003015460098281548110613bb257613bb16141c9565b5b9060005260206000209060060201600201541415613cc057600260098281548110613be057613bdf6141c9565b5b9060005260206000209060060201600501819055507f344f3c440bc0a199d8ebf3e014b04b0be7f494a3e35bc4c4b162dbf9edb2452160098281548110613c2a57613c296141c9565b5b906000526020600020906006020160010160009054906101000a900473ffffffffffffffffffffffffffffffffffffffff1660098381548110613c7057613c6f6141c9565b5b90600052602060002090600602016002015460098481548110613c9657613c956141c9565b5b906000526020600020906006020160040154604051613cb7939291906143f8565b60405180910390a15b7ff8d3b803c2699d3e25440474a9089daa89195298415edaf5cb5ff73d4cad4d4460098281548110613cf557613cf46141c9565b5b906000526020600020906006020160010160009054906101000a900473ffffffffffffffffffffffffffffffffffffffff168385604051613d38939291906143f8565b60405180910390a15b8080613d4c9061442f565b915050613a34565b505050565b600033905090565b600080fd5b6000819050919050565b613d7981613d66565b8114613d8457600080fd5b50565b600081359050613d9681613d70565b92915050565b600060208284031215613db257613db1613d61565b5b6000613dc084828501613d87565b91505092915050565b613dd281613d66565b82525050565b600073ffffffffffffffffffffffffffffffffffffffff82169050919050565b6000613e0382613dd8565b9050919050565b613e1381613df8565b82525050565b600060c082019050613e2e6000830189613dc9565b613e3b6020830188613e0a565b613e486040830187613dc9565b613e556060830186613dc9565b613e626080830185613dc9565b613e6f60a0830184613dc9565b979650505050505050565b600061010082019050613e90600083018b613dc9565b613e9d602083018a613e0a565b613eaa6040830189613dc9565b613eb76060830188613dc9565b613ec46080830187613dc9565b613ed160a0830186613e0a565b613ede60c0830185613dc9565b613eeb60e0830184613dc9565b9998505050505050505050565b6000602082019050613f0d6000830184613dc9565b92915050565b6000819050919050565b6000613f38613f33613f2e84613dd8565b613f13565b613dd8565b9050919050565b6000613f4a82613f1d565b9050919050565b6000613f5c82613f3f565b9050919050565b613f6c81613f51565b82525050565b6000602082019050613f876000830184613f63565b92915050565b6000606082019050613fa26000830186613dc9565b613faf6020830185613dc9565b613fbc6040830184613dc9565b949350505050565b6000602082019050613fd96000830184613e0a565b92915050565b600061016082019050613ff5600083018e613dc9565b614002602083018d613e0a565b61400f604083018c613dc9565b61401c606083018b613dc9565b614029608083018a613dc9565b61403660a0830189613dc9565b61404360c0830188613dc9565b61405060e0830187613dc9565b61405e610100830186613dc9565b61406c610120830185613dc9565b61407a610140830184613dc9565b9c9b505050505050505050505050565b6000806000606084860312156140a3576140a2613d61565b5b60006140b186828701613d87565b93505060206140c286828701613d87565b92505060406140d386828701613d87565b9150509250925092565b600080604083850312156140f4576140f3613d61565b5b600061410285828601613d87565b925050602061411385828601613d87565b9150509250929050565b61412681613df8565b811461413157600080fd5b50565b6000813590506141438161411d565b92915050565b60006020828403121561415f5761415e613d61565b5b600061416d84828501614134565b91505092915050565b600060a08201905061418b6000830188613dc9565b6141986020830187613dc9565b6141a56040830186613e0a565b6141b26060830185613dc9565b6141bf6080830184613dc9565b9695505050505050565b7f4e487b7100000000000000000000000000000000000000000000000000000000600052603260045260246000fd5b7f4e487b7100000000000000000000000000000000000000000000000000000000600052601160045260246000fd5b600061423282613d66565b915061423d83613d66565b9250827fffffffffffffffffffffffffffffffffffffffffffffffffffffffffffffffff03821115614272576142716141f8565b5b828201905092915050565b600082825260208201905092915050565b7f496e76616c696420616464726573730000000000000000000000000000000000600082015250565b60006142c4600f8361427d565b91506142cf8261428e565b602082019050919050565b600060208201905081810360008301526142f3816142b7565b9050919050565b7f496e76616c696420616d6f756e74000000000000000000000000000000000000600082015250565b6000614330600e8361427d565b915061433b826142fa565b602082019050919050565b6000602082019050818103600083015261435f81614323565b9050919050565b7f56616c7565206973206c6f776572207468616e206d696e696d756d20706f737360008201527f69626c6520616d6f756e74000000000000000000000000000000000000000000602082015250565b60006143c2602b8361427d565b91506143cd82614366565b604082019050919050565b600060208201905081810360008301526143f1816143b5565b9050919050565b600060608201905061440d6000830186613e0a565b61441a6020830185613dc9565b6144276040830184613dc9565b949350505050565b600061443a82613d66565b91507fffffffffffffffffffffffffffffffffffffffffffffffffffffffffffffffff82141561446d5761446c6141f8565b5b600182019050919050565b7f446561646c696e6520666f722063726f776466756e64696e672068617320706160008201527f737365642e000000000000000000000000000000000000000000000000000000602082015250565b60006144d460258361427d565b91506144df82614478565b604082019050919050565b60006020820190508181036000830152614503816144c7565b9050919050565b7f46756e64206973206e6f74206163746976650000000000000000000000000000600082015250565b600061454060128361427d565b915061454b8261450a565b602082019050919050565b6000602082019050818103600083015261456f81614533565b9050919050565b600060608201905061458b6000830186613e0a565b6145986020830185613e0a565b6145a56040830184613dc9565b949350505050565b60008115159050919050565b6145c2816145ad565b81146145cd57600080fd5b50565b6000815190506145df816145b9565b92915050565b6000602082840312156145fb576145fa613d61565b5b6000614609848285016145d0565b91505092915050565b7f496e76616c69642063757272656e637900000000000000000000000000000000600082015250565b600061464860108361427d565b915061465382614612565b602082019050919050565b600060208201905081810360008301526146778161463b565b9050919050565b7f5265656e7472616e637947756172643a207265656e7472616e742063616c6c00600082015250565b60006146b4601f8361427d565b91506146bf8261467e565b602082019050919050565b600060208201905081810360008301526146e3816146a7565b9050919050565b6000815190506146f981613d70565b92915050565b60006020828403121561471557614714613d61565b5b6000614723848285016146ea565b91505092915050565b7f4e6f7420656e6f75676820746f6b656e7320696e2074686520636f6e7472616360008201527f7400000000000000000000000000000000000000000000000000000000000000602082015250565b600061478860218361427d565b91506147938261472c565b604082019050919050565b600060208201905081810360008301526147b78161477b565b9050919050565b60006040820190506147d36000830185613e0a565b6147e06020830184613dc9565b9392505050565b60006147f282613d66565b91506147fd83613d66565b9250817fffffffffffffffffffffffffffffffffffffffffffffffffffffffffffffffff0483118215151615614836576148356141f8565b5b828202905092915050565b7f4e487b7100000000000000000000000000000000000000000000000000000000600052601260045260246000fd5b600061487b82613d66565b915061488683613d66565b92508261489657614895614841565b5b828204905092915050565b60006148ac82613d66565b91506148b783613d66565b9250828210156148ca576148c96141f8565b5b828203905092915050565b60006060820190506148ea6000830186613e0a565b6148f76020830185613dc9565b6149046040830184613e0a565b949350505050565b7f50726f626c656d20776974682063616c63756c6174696f6e0000000000000000600082015250565b600061494260188361427d565b915061494d8261490c565b602082019050919050565b6000602082019050818103600083015261497181614935565b9050919050565b7f4f776e61626c653a206e6577206f776e657220697320746865207a65726f206160008201527f6464726573730000000000000000000000000000000000000000000000000000602082015250565b60006149d460268361427d565b91506149df82614978565b604082019050919050565b60006020820190508181036000830152614a03816149c7565b9050919050565b7f4f776e61626c653a2063616c6c6572206973206e6f7420746865206f776e6572600082015250565b6000614a4060208361427d565b9150614a4b82614a0a565b602082019050919050565b60006020820190508181036000830152614a6f81614a33565b905091905056fea264697066735822122020182282760119b9a4a7e3feca03f2adbeca3ae86c72517d4dc931507fedf51564736f6c63430008090033",
  "linkReferences": {},
  "deployedLinkReferences": {}
}